:020000040800F2
:1000000000280020111300087D1200088312000848
:10001000891200088F1200089512000800000000E5
:100020000000000000000000000000009B1200081B
:10003000A712000800000000B3120008BF12000859
:1000400059130008591300085913000859130008E0
:1000500059130008591300085913000859130008D0
:1000600059130008591300085913000859130008C0
:1000700059130008591300085913000859130008B0
:1000800059130008591300085913000859130008A0
:100090005913000859130008591300085913000890
:1000A0005913000859130008591300085913000880
:1000B000CD12000859130008000000005913000871
:1000C0005913000800000000000000005913000848
:1000D0000000000059130008591300080000000038
:1000E00059130008591300085913000800000000B4
:1000F0000000000000000000000000000000000000
:0C01000000000000000000005FF808F1A3
:10010C0010B5054C237833B9044B13B10448AFF345
:10011C0000800123237010BD2C0000200000000083
:10012C008029000808B5034B1BB103490348AFF302
:10013C00008008BD0000000030000020802900086D
:10014C0080B500AF384B1B68032B63D801A252F863
:10015C0023F000BF7101000897010008C5010008D9
:10016C00F301000800F0F0FC2F4B01221A602F4B1A
:10017C001B682F4A13602D4B1B68184600F060F863
:10018C000346184600F024FF4BE000F0F3FC294B2B
:10019C001B68012B40D1244B02221A60264B1B6892
:1001AC00234A1360244B1B68184600F049F8034699
:1001BC00184600F00DFF2FE000F0F2FC1D4B1B6801
:1001CC00012B2BD1184B03221A601C4B1B68184AAD
:1001DC0013601A4B1B68184600F032F80346184699
:1001EC0000F0F6FE1AE000F0F1FC124B1B68012B3C
:1001FC0016D10D4B01221A600C4B1B680C4A136074
:10020C000A4B1B68184600F01BF80346184600F012
:10021C00DFFE05E000BF04E000BF02E000BF00E02D
:10022C0000BF00BF80BD00BF4800002000000020C0
:10023C00500000208800002004000020080000204E
:10024C0080B483B000AF78607B684FF47A7202FBA5
:10025C0003F318460C37BD4680BC704780B500AF21
:10026C00384B1B68032B63D801A252F823F000BF54
:10027C008D020008B3020008E10200080F03000819
:10028C0000F0BAFC2F4B02221A602F4B1B682F4A2E
:10029C0013602D4B1B681846FFF7D2FF0346184618
:1002AC0000F0B0FE4BE000F0BDFC294B1B68012BAD
:1002BC0040D1244B02221A60234B1B68234A136043
:1002CC00214B1B681846FFF7BBFF0346184600F08E
:1002DC0099FE2FE000F0BCFC1D4B1B68012B2BD1B1
:1002EC00184B03221A601B4B1B68184A1360194BDE
:1002FC001B681846FFF7A4FF0346184600F082FE61
:10030C001AE000F0BBFC124B1B68012B16D10D4BF5
:10031C0001221A60104B1B680C4A13600E4B1B68B1
:10032C001846FFF78DFF0346184600F06BFE05E0FC
:10033C0000BF04E000BF02E000BF00E000BF00BF50
:10034C0080BD00BF4C0000200400002054000020A1
:10035C008C000020080000200000002080B483B036
:10036C0000AF0346FB71FB79022B01D9002307E098
:10037C00FB79064AD35C002B0CBF01230023DBB2B4
:10038C0018460C37BD4680BC704700BF5800002093
:10039C0080B483B000AF0346FB71FB79022B01D90B
:1003AC00FF2307E0FB79064AD35C012B0CBF01232A
:1003BC000023DBB218460C37BD4680BC704700BF2B
:1003CC006800002080B582B000AF0346FB71FB795A
:1003DC00514AD35C022B69D0022B00F39980002B7D
:1003EC0002D0012B1AD093E0FB791846FFF7B6FF29
:1003FC000346002B00F08980FB79474A0121D15438
:10040C00FB79464A002122F81310FB79444A00215B
:10041C00D154FB79434A0121D15476E0FB7918463B
:10042C00FFF79CFF0346002B0DD1FB793A4A0021C4
:10043C00D154FB793B4A0021D154FB79374A002136
:10044C0022F8131063E0FB79344A32F81330B3F519
:10045C00967F09D2FB79314A32F81320013291B2DE
:10046C002E4A22F8131011E0FB792D4A0121D154A8
:10047C00FB792C4A0121D154FB792B4A002122F81B
:10048C001310FB79254A002122F81310FB7918462A
:10049C00FFF77EFF0346002B39D0FB791E4A022161
:1004AC00D154FB791E4A0021D15430E0FB79184617
:1004BC00FFF754FF0346002B0DD1FB79164A0021A0
:1004CC00D154FB79174A0021D154FB79164A0021EB
:1004DC0022F813101CE0FB79134A32F81330632B0B
:1004EC0009D8FB79104A32F81320013291B20E4A26
:1004FC0022F813100CE0FB790A4A0121D154FB7944
:10050C00094A002122F8131002E000BF00E000BFEE
:10051C0000BF0837BD4680BD800000207000002061
:10052C00680000206C0000207800002090B583B09B
:10053C0000AF0023FB7154E0FA79FB792D49895CFB
:10054C002D4AD154FA79FB792C49895C294AD1542A
:10055C00FB79022B1CD0022B25DC002B02D0012BAB
:10056C000BD020E0FC794FF40051254801F0DAF96A
:10057C0003461A46214B1A5516E0FC794FF480417C
:10058C001F4801F0CFF903461A461C4B1A550BE0D5
:10059C00FC794FF400411A4801F0C4F903461A469D
:1005AC00164B1A5500E000BFFB79144AD25CFB795C
:1005BC001049CB5C9A4211D1FB790E4AD25CFB7983
:1005CC000D49CB5C9A4209D1FA79FB790A49895CCD
:1005DC000C4AD154FB791846FFF7F4FEFB79013332
:1005EC00FB71FB79022BA7D900BF00BF0C37BD46AE
:1005FC0090BD00BF60000020640000205C00002063
:10060C00001001405800002080B582B000AF786027
:10061C007B68092B00F2808101A252F823F000BF05
:10062C00550600089D060008E50600082D07000881
:10063C0075070008BD070008050800084D080008EC
:10064C0095080008DD08000800220121C64801F0C9
:10065C0080F900220221C44801F07BF90022042118
:10066C00C14801F076F900220821BF4801F071F968
:10067C0000221021BC4801F06CF900222021BA485C
:10068C0001F067F901224021B74801F062F967E1F6
:10069C0001220121B44801F05CF900220221B24888
:1006AC0001F057F900220421AF4801F052F9012260
:1006BC000821AD4801F04DF901221021AA4801F0A2
:1006CC0048F901222021A84801F043F901224021D8
:1006DC00A54801F03EF943E100220121A24801F0B6
:1006EC0038F900220221A04801F033F9012204213B
:1006FC009D4801F02EF9002208219B4801F029F9B0
:10070C0000221021984801F024F90122202196485A
:10071C0001F01FF900224021934801F01AF91FE162
:10072C0000220121904801F014F9002202218E4888
:10073C0001F00FF9002204218B4801F00AF9002284
:10074C000821894801F005F901221021864801F0A1
:10075C0000F901222021844801F0FBF800224021FD
:10076C00814801F0F6F8FBE0012201217E4801F0FE
:10077C00F0F8002202217C4801F0EBF80022042161
:10078C00794801F0E6F801220821774801F0E1F8F8
:10079C0001221021744801F0DCF80022202172485B
:1007AC0001F0D7F8002240216F4801F0D2F8D7E0D1
:1007BC00002201216C4801F0CCF8012202216A4888
:1007CC0001F0C7F800220421674801F0C2F80022AA
:1007DC000821654801F0BDF801221021624801F0A2
:1007EC00B8F800222021604801F0B3F80022402123
:1007FC005D4801F0AEF8B3E0002201215A4801F047
:10080C00A8F801220221584801F0A3F80022042183
:10081C00554801F09EF800220821534801F099F840
:10082C0000221021504801F094F8002220214E485B
:10083C0001F08FF8002240214B4801F08AF88FE03C
:10084C0000220121484801F084F800220221464888
:10085C0001F07FF800220421434801F07AF80122CC
:10086C000821414801F075F8012210213E4801F0A1
:10087C0070F8012220213C4801F06BF80122402144
:10088C00394801F066F86BE000220121364801F08E
:10089C0060F800220221344801F05BF800220421A8
:1008AC00314801F056F8002208212F4801F051F888
:1008BC00002210212C4801F04CF8002220212A485B
:1008CC0001F047F800224021274801F042F847E0A8
:1008DC0000220121244801F03CF800220221224888
:1008EC0001F037F8002204211F4801F032F80022F1
:1008FC0008211D4801F02DF8012210211A4801F0A1
:10090C0028F800222021184801F023F80022402169
:10091C00154801F01EF823E001220121124801F0D4
:10092C0018F801220221104801F013F801220421C9
:10093C000D4801F00EF8012208210B4801F009F8CE
:10094C0001221021084801F004F801222021064858
:10095C0000F0FFFF01224021034800F0FAFF00BF26
:10096C0000BF0837BD4680BD000C014080B582B089
:10097C0000AF78607B68032B2AD801A252F823F0D1
:10098C009D090008AD090008BD090008CD09000843
:10099C00124A7B6852F823301846FFF735FE18E0F0
:1009AC000E4A7B6852F823301846FFF72DFE10E0F4
:1009BC000A4A7B6852F823301846FFF725FE08E0F8
:1009CC00064A7B6852F823301846FFF71DFE00E0FC
:1009DC0000BF00BF0837BD4680BD00BF0C00002023
:1009EC0080B483B000AF786039607B68184A82FBB2
:1009FC0003129210DB17D31A164A13607968144B42
:100A0C0083FB01239A10CB17D21A13469B00134475
:100A1C005B00CA1A0F4B5A603B680D4A82FB0312EB
:100A2C009210DB17D31A0B4A93603968084B83FB7F
:100A3C0001239A10CB17D21A13469B0013445B0068
:100A4C00CA1A044BDA6000BF0C37BD4680BC704735
:100A5C00676666660C00002080B500AF00224FF47C
:100A6C0080710B4800F075FF01224FF400710848AB
:100A7C0000F06FFF01224FF48061054800F069FF20
:100A8C0001224FF40061024800F063FF00BF80BDFB
:100A9C000008014080B500AF01224FF480710B4873
:100AAC0000F057FF00224FF40071084800F051FF8E
:100ABC0001224FF48061054800F04BFF01224FF4F6
:100ACC000061024800F045FF00BF80BD00080140F6
:100ADC0080B500AF01224FF480710B4800F039FF54
:100AEC0001224FF40071084800F033FF00224FF44C
:100AFC008061054800F02DFF01224FF4006102488F
:100B0C0000F027FF00BF80BD0008014080B500AF9A
:100B1C0001224FF480710B4800F01BFF01224FF4AF
:100B2C000071084800F015FF01224FF48061054860
:100B3C0000F00FFF00224FF40061024800F009FFA3
:100B4C0000BF80BD0008014080B500AF0122042128
:100B5C00074800F0FEFE01221021054800F0F9FEC6
:100B6C0001220821024800F0F4FE00BF80BD00BF46
:100B7C000008014080B500AF00220421074800F0B6
:100B8C00E8FE01221021054800F0E3FE01220821B5
:100B9C00024800F0DEFE00BF80BD00BF000801402F
:100BAC0080B500AF01220421074800F0D2FE0022DC
:100BBC001021054800F0CDFE01220821024800F06A
:100BCC00C8FE00BF80BD00BF0008014080B500AF6B
:100BDC0001220421074800F0BCFE01221021054827
:100BEC0000F0B7FE00220821024800F0B2FE00BF60
:100BFC0080BD00BF0008014080B500AF012220215C
:100C0C00074800F0A6FE01228021054800F0A1FE55
:100C1C0001224021024800F09CFE00BF80BD00BFB5
:100C2C000008014080B500AF00222021074800F0E9
:100C3C0090FE01228021054800F08BFE012240210C
:100C4C00024800F086FE00BF80BD00BF00080140D6
:100C5C0080B500AF01222021074800F07AFE002267
:100C6C008021054800F075FE01224021024800F069
:100C7C0070FE00BF80BD00BF0008014080B500AF12
:100C8C0001222021074800F064FE01228021054842
:100C9C0000F05FFE00224021024800F05AFE00BF27
:100CAC0080BD00BF0008014080B582B000AF00F0ED
:100CBC004FFB00F08FF800F015F900F0C7F83E4834
:100CCC0001F098FA3D4B00221A603D4B00221A604D
:100CDC0000237B6000233B604FF47A7000F078F9BE
:100CEC004FF47A7000F08EF94FF47A7000F0A4F99A
:100CFC004FF47A7000F0BAF9FFF722FAFFF7AEFA68
:100D0C00304B1B68012B44D12F4B1B682F4A1268A8
:100D1C0011461846FFF764FE7B68032B35D801A2F9
:100D2C0052F823F0410D0008570D00086D0D000816
:100D3C00830D0008FFF790FE3868FFF717FE0123BC
:100D4C007B603B6801333B6020E0FFF7A3FE386813
:100D5C00FFF70CFE02237B603B6801333B6015E020
:100D6C00FFF7B6FE3868FFF701FE03237B603B6894
:100D7C0001333B600AE0FFF7C9FE3868FFF7F6FD68
:100D8C0000237B6000233B6000E000BFFA2000F0F2
:100D9C0053F90F4B1B68012BAED10B4B1B68013B5E
:100DAC00094A1360094B1B68013B084A13604FF456
:100DBC007A7000F05BF99FE7BC000020480000202F
:100DCC004C00002090000020500000205400002017
:100DDC009400002080B590B000AF07F118032822D2
:100DEC000021184601F0BEFD3B1D00221A605A601E
:100DFC009A60DA601A610223BB610123BB62102383
:100E0C00FB6200237B6307F11803184600F0BAFD60
:100E1C000346002B01D000F0D5F80F237B60002394
:100E2C00BB600023FB6000233B6100237B613B1D07
:100E3C000021184601F026F80346002B01D000F0E3
:100E4C00C1F800BF4037BD4680BD000080B586B0FC
:100E5C0000AF07F1080300221A605A609A60DA604A
:100E6C003B4600221A605A601D4B4FF080421A60BC
:100E7C001B4B41F63F725A60194B00229A60184B7B
:100E8C000922DA60164B00221A61154B00229A6176
:100E9C00134801F05FF90346002B01D000F092F8E3
:100EAC004FF48053BB6007F1080319460C4801F05E
:100EBC00F5FA0346002B01D000F084F800233B60C8
:100ECC0000237B603B461946054801F0BDFC0346F8
:100EDC00002B01D000F076F800BF1837BD4680BD5E
:100EEC00BC00002080B588B000AF07F110030022D1
:100EFC001A605A609A60DA602E4B9B692D4A43F057
:100F0C00100393612B4B9B6903F01003FB60FB6890
:100F1C00284B9B69274A43F004039361254B9B693B
:100F2C0003F00403BB60BB68224B9B69214A43F06E
:100F3C00080393611F4B9B6903F008037B607B687C
:100F4C00002240F6FE711C4800F003FD00227F21B8
:100F5C001A4800F0FEFC4FF460433B6100237B61B8
:100F6C000123BB6107F110031946154800F060FB23
:100F7C0040F6FE733B6101237B610023BB610223BE
:100F8C00FB6107F1100319460B4800F051FB7F235E
:100F9C003B6101237B610023BB610223FB6107F1F1
:100FAC0010031946054800F043FB00BF2037BD462F
:100FBC0080BD00BF0010024000080140000C014041
:100FCC000010014080B400AF72B600BFFEE7000015
:100FDC0080B483B000AF7860074B1B687A6892FBD3
:100FEC00F3F3064A1360064B00221A6000BF0C375D
:100FFC00BD4680BC704700BF1C000020A400002030
:10100C008800002080B483B000AF7860074B1B6869
:10101C007A6892FBF3F3064A1360064B00221A60BF
:10102C0000BF0C37BD4680BC704700BF1C000020C1
:10103C00A80000208C00002080B483B000AF786042
:10104C00074B1B687A6892FBF3F3064A1360064B56
:10105C0000221A6000BF0C37BD4680BC704700BF31
:10106C001C000020AC0000209000002080B483B055
:10107C0000AF7860074B1B687A6892FBF3F3064A63
:10108C001360064B00221A6000BF0C37BD4680BCB3
:10109C00704700BF1C000020B0000020940000200E
:1010AC0080B400AF394B1B68002B0BDD374B1B6832
:1010BC00013B364A1360354B1B68002B02DC344B6A
:1010CC0001221A60334B1B68002B0BDD314B1B6864
:1010DC00013B304A13602F4B1B68002B02DC2E4B5C
:1010EC0001221A602D4B1B68002B0BDD2B4B1B6850
:1010FC00013B2A4A1360294B1B68002B02DC284B4E
:10110C0001221A60274B1B68002B0BDD254B1B683B
:10111C00013B244A1360234B1B68002B02DC224B3F
:10112C0001221A60214B1B68002B0BDD1F4B1B6827
:10113C00013B1E4A13601D4B1B68002B02DC1C4B31
:10114C0001221A601B4B1B68002B0BDD194B1B6813
:10115C00013B184A1360174B1B68002B02DC164B23
:10116C0001221A60154B1B68002B0BDD134B1B68FF
:10117C00013B124A1360114B1B68002B02DC104B15
:10118C0001221A6000BFBD4680BC7047A000002041
:10119C0084000020A400002088000020A80000206B
:1011AC008C000020AC00002090000020B00000203B
:1011BC0094000020B400002098000020B80000200B
:1011CC009C00002080B485B000AF154B9B69144A7D
:1011DC0043F001039361124B9B6903F00103BB6065
:1011EC00BB680F4BDB690E4A43F08053D3610C4B49
:1011FC00DB6903F080537B607B680A4B5B68FB60A8
:10120C00FB6823F0E063FB60FB6843F08063FB60EA
:10121C00044AFB68536000BF1437BD4680BC70475E
:10122C00001002400000014080B584B000AF78602F
:10123C007B681B68B3F1804F13D10C4BDB690B4AF5
:10124C0043F00103D361094BDB6903F00103FB603D
:10125C00FB68002200211C2000F0B3F91C2000F0D8
:10126C00CCF900BF1037BD4680BD00BF0010024056
:10127C0080B400AFFEE780B400AFFEE780B400AFEF
:10128C00FEE780B400AFFEE780B400AFFEE780B4A9
:10129C0000AF00BFBD4680BC704780B400AF00BF3C
:1012AC00BD4680BC704780B400AF00BFBD4680BC5B
:1012BC00704780B500AF00F091F800BF80BD000012
:1012CC0080B500AF024800F0E1FF00BF80BD00BF59
:1012DC00BC00002080B400AF00BFBD4680BC70478E
:1012EC0080B582B000AF78607B681B68B3F1804F2B
:1012FC0003D1FFF71BF9FFF7D3FE00BF0837BD463C
:10130C0080BD00000C480D490D4A002302E0D45862
:10131C00C4500433C4188C42F9D30A4A0A4C002333
:10132C0001E013600432A242FBD3FFF7D3FF01F0BC
:10133C00F5FAFFF7B9FC7047000000202C000020E4
:10134C00C02900082C00002008010020FEE7000046
:10135C0080B500AF084B1B68074A43F010031360BD
:10136C00032000F023F90F2000F008F8FFF72AFF04
:10137C000023184680BD00BF0020024080B582B01B
:10138C0000AF7860124B1A68124B1B7819464FF459
:10139C007A73B3FBF1F3B2FBF3F3184600F03BF9AD
:1013AC000346002B01D001230EE07B680F2B0AD8DB
:1013BC00002279684FF0FF3000F003F9064A7B6891
:1013CC001360002300E0012318460837BD4680BD9A
:1013DC0020000020280000202400002080B400AF52
:1013EC00054B1B781A46054B1B681344034A1360C4
:1013FC0000BFBD4680BC70472800002004010020BF
:10140C0080B400AF024B1B681846BD4680BC7047C9
:10141C000401002080B485B000AF78607B6803F0D5
:10142C000703FB600C4BDB68BB60BA684FF6FF032D
:10143C001340BB60FB681A02BB68134343F0BF63E5
:10144C0043F40033BB60044ABB68D36000BF14375D
:10145C00BD4680BC704700BF00ED00E080B400AF1B
:10146C00044BDB681B0A03F007031846BD4680BC1F
:10147C00704700BF00ED00E080B483B000AF0346BE
:10148C00FB7197F90730002B0BDBFB7903F01F0284
:10149C00064997F907305B09012000FA02F241F87E
:1014AC00232000BF0C37BD4680BC704700E100E034
:1014BC0080B483B000AF03463960FB7197F90730F5
:1014CC00002B0ADB3B68DAB20C4997F907301201A2
:1014DC00D2B20B4483F800230AE03B68DAB2084925
:1014EC00FB7903F00F03043B1201D2B20B441A76C2
:1014FC0000BF0C37BD4680BC704700BF00E100E068
:10150C0000ED00E080B489B000AFF860B9607A609B
:10151C00FB6803F00703FB61FB69C3F10703042BB2
:10152C0028BF0423BB61FB690433062B02D9FB697A
:10153C00033B00E000237B614FF0FF32BB6902FAF2
:10154C0003F3DA43BB681A407B699A404FF0FF31D2
:10155C007B6901FA03F3D9437B680B4013431846AC
:10156C002437BD4680BC704780B582B000AF786030
:10157C007B68013BB3F1807F01D301230FE00A4A62
:10158C007B68013B53600F214FF0FF30FFF790FF5A
:10159C00054B00229A60044B07221A600023184660
:1015AC000837BD4680BD00BF10E000E080B582B0BA
:1015BC0000AF78607868FFF72DFF00BF0837BD4695
:1015CC0080BD80B586B000AF0346B9607A60FB730E
:1015DC0000237B61FFF742FF78617A68B96878690C
:1015EC00FFF790FF024697F90F3011461846FFF7A8
:1015FC005FFF00BF1837BD4680BD80B582B000AF1D
:10160C000346FB7197F907301846FFF735FF00BF0B
:10161C000837BD4680BD80B582B000AF7860786871
:10162C00FFF7A2FF034618460837BD4680BD0000F1
:10163C0080B48BB000AF7860396000237B620023EC
:10164C003B6248E101227B6A02FA03F3FB613B68CF
:10165C001B68FA691340BB61BA69FB699A4240F096
:10166C0037813B685B68A34A93425ED0A14A9342A0
:10167C0075D8A14A934258D09F4A93426FD89F4A3B
:10168C00934252D09D4A934269D89D4A93424CD082
:10169C009B4A934263D89B4A934246D0994A9342C1
:1016AC005DD8122B2AD8122B59D801A252F823F04C
:1016BC0037170008111700082317000865170008D2
:1016CC006B1700086B1700086B1700086B170008E6
:1016DC006B1700086B1700086B1700086B170008D6
:1016EC006B1700086B1700086B1700086B170008C6
:1016FC006B170008191700082D170008824A93422F
:10170C0013D02CE03B68DB683B6229E03B68DB686C
:10171C0004333B6224E03B68DB6808333B621FE028
:10172C003B68DB680C333B621AE03B689B68002B20
:10173C0002D104233B6213E03B689B68012B05D16B
:10174C0008233B627B68FA691A6109E008233B6253
:10175C007B68FA695A6103E000233B6200E000BF3A
:10176C00BB69FF2B01D87B6801E07B6804337B618C
:10177C00BB69FF2B02D87B6A9B0002E07B6A083BAB
:10178C009B003B617B691A680F213B6901FA03F3EB
:10179C00DB431A40396A3B6901FA03F31A437B694C
:1017AC001A603B685B6803F08053002B00F090805C
:1017BC00564B9B69554A43F001039361534B9B690C
:1017CC0003F00103BB60BB68514A7B6A9B08023380
:1017DC0052F82330FB607B6A03F003039B000F225B
:1017EC0002FA03F3DB43FA681340FB607B68494A57
:1017FC0093420DD07B68484A934207D07B68474A96
:10180C00934201D1022304E0032302E0012300E010
:10181C0000237A6A02F0030292009340FA681343A1
:10182C00FB603B497B6A9B080233FA6841F8232032
:10183C003B685B6803F48033002B06D0384B1A6886
:10184C003749BB6913430B6006E0354B1A68BB691B
:10185C00DB43334913400B603B685B6803F4003394
:10186C00002B06D02E4B5A682D49BB6913434B6095
:10187C0006E02B4B5A68BB69DB43294913404B608C
:10188C003B685B6803F48013002B06D0244B9A68EA
:10189C002349BB6913438B6006E0214B9A68BB69F3
:1018AC00DB431F4913408B603B685B6803F40013F8
:1018BC00002B06D01A4BDA681949BB691343CB606D
:1018CC0006E0174BDA68BB69DB4315491340CB6064
:1018DC007B6A01337B623B681A687B6A22FA03F3EA
:1018EC00002B7FF4AFAE00BF00BF2C37BD4680BCD1
:1018FC00704700BF000032100000311000002210B1
:10190C000000211000001210000011100010024005
:10191C000000014000080140000C01400010014093
:10192C000004014080B485B000AF78600B467B802A
:10193C007B689A687B881340002B02D00123FB73D1
:10194C0001E00023FB73FB7B18461437BD4680BCBB
:10195C00704780B483B000AF78600B467B80134631
:10196C007B707B78002B03D07A887B681A6103E04C
:10197C007B881A047B681A6100BF0C37BD4680BC9B
:10198C007047000080B586B000AF78607B68002B94
:10199C0001D101236CE27B681B6803F00103002B6F
:1019AC0000F08780924B5B6803F00C03042B0CD087
:1019BC008F4B5B6803F00C03082B12D18C4B5B68CC
:1019CC0003F48033B3F5803F0BD1894B1B6803F4D0
:1019DC000033002B6CD07B685B68002B68D1012333
:1019EC0046E27B685B68B3F5803F06D1804B1B6891
:1019FC007F4A43F4803313602EE07B685B68002BD6
:101A0C000CD17B4B1B687A4A23F480331360784BE0
:101A1C001B68774A23F4802313601DE07B685B68A6
:101A2C00B3F5A02F0CD1724B1B68714A43F4802381
:101A3C0013606F4B1B686E4A43F4803313600BE0EA
:101A4C006B4B1B686A4A23F480331360684B1B682A
:101A5C00674A23F4802313607B685B68002B13D0E8
:101A6C00FFF7CEFC386108E0FFF7CAFC02463B6981
:101A7C00D31A642B01D90323FAE15D4B1B6803F4E1
:101A8C000033002BF0D014E0FFF7BAFC386108E00B
:101A9C00FFF7B6FC02463B69D31A642B01D903232A
:101AAC00E6E1534B1B6803F40033002BF0D100E04C
:101ABC0000BF7B681B6803F00203002B63D04C4B08
:101ACC005B6803F00C03002B0BD0494B5B6803F0F5
:101ADC000C03082B1CD1464B5B6803F48033002BA2
:101AEC0016D1434B1B6803F00203002B05D07B6817
:101AFC001B69012B01D00123BAE13D4B1B6823F07C
:101B0C00F8027B685B69DB00394913430B603AE0F0
:101B1C007B681B69002B20D0364B01221A60FFF723
:101B2C006FFC386108E0FFF76BFC02463B69D31A87
:101B3C00022B01D903239BE12D4B1B6803F00203FD
:101B4C00002BF0D02A4B1B6823F0F8027B685B69F2
:101B5C00DB00274913430B6015E0264B00221A606B
:101B6C00FFF74EFC386108E0FFF74AFC02463B6980
:101B7C00D31A022B01D903237AE11D4B1B6803F006
:101B8C000203002BF0D17B681B6803F00803002BC9
:101B9C003AD07B689B69002B19D0174B01221A6035
:101BAC00FFF72EFC386108E0FFF72AFC02463B6980
:101BBC00D31A022B01D903235AE10D4B5B6A03F0B4
:101BCC000203002BF0D0012000F0A6FA1CE00A4B17
:101BDC0000221A60FFF714FC38610FE0FFF710FCCD
:101BEC0002463B69D31A022B08D9032340E100BFFC
:101BFC000010024000004242800442429E4B5B6A4D
:101C0C0003F00203002BE9D17B681B6803F004038B
:101C1C00002B00F0A6800023FB75974BDB6903F0CB
:101C2C008053002B0DD1944BDB69934A43F08053C6
:101C3C00D361914BDB6903F08053BB60BB6801231C
:101C4C00FB758E4B1B6803F48073002B18D18B4BE8
:101C5C001B688A4A43F480731360FFF7D1FB386129
:101C6C0008E0FFF7CDFB02463B69D31A642B01D980
:101C7C000323FDE0814B1B6803F48073002BF0D031
:101C8C007B68DB68012B06D17B4B1B6A7A4A43F0DD
:101C9C00010313622DE07B68DB68002B0CD1764BC3
:101CAC001B6A754A23F001031362734B1B6A724A59
:101CBC0023F0040313621CE07B68DB68052B0CD15A
:101CCC006D4B1B6A6C4A43F0040313626A4B1B6A2C
:101CDC00694A43F0010313620BE0674B1B6A664AC7
:101CEC0023F001031362644B1B6A634A23F0040361
:101CFC0013627B68DB68002B15D0FFF781FB386122
:101D0C000AE0FFF77DFB02463B69D31A41F28832A9
:101D1C00934201D90323ABE0574B1B6A03F0020338
:101D2C00002BEED014E0FFF76BFB38610AE0FFF7F5
:101D3C0067FB02463B69D31A41F28832934201D9C0
:101D4C00032395E04C4B1B6A03F00203002BEED1EE
:101D5C00FB7D012B05D1484BDB69474A23F08053AF
:101D6C00D3617B68DB69002B00F08180424B5B68A0
:101D7C0003F00C03082B61D07B68DB69022B46D186
:101D8C003F4B00221A60FFF73BFB386108E0FFF77E
:101D9C0037FB02463B69D31A022B01D9032367E0B8
:101DAC00354B1B6803F00073002BF0D17B681B6A6A
:101DBC00B3F5803F08D1304B5B6823F400327B686D
:101DCC009B682D4913434B602B4B5B6823F47412B7
:101DDC007B68196A7B685B6A0B43274913434B602A
:101DEC00274B01221A60FFF70BFB386108E0FFF765
:101DFC0007FB02463B69D31A022B01D9032337E0B8
:101E0C001D4B1B6803F00073002BF0D02FE01C4B14
:101E1C0000221A60FFF7F4FA386108E0FFF7F0FAD5
:101E2C0002463B69D31A022B01D9032320E0124B43
:101E3C001B6803F00073002BF0D118E07B68DB69A2
:101E4C00012B01D1012313E00B4B5B68FB60FB689A
:101E5C0003F480327B681B6A9A4206D1FB6803F458
:101E6C0070127B685B6A9A4201D0012300E0002368
:101E7C0018461837BD4680BD001002400070004067
:101E8C006000424280B584B000AF786039607B68F6
:101E9C00002B01D10123D0E06A4B1B6803F0070330
:101EAC003A689A4210D9674B1B6823F007026549C0
:101EBC003B6813430B60634B1B6803F007033A68E2
:101ECC009A4201D00123B8E07B681B6803F002033F
:101EDC00002B20D07B681B6803F00403002B05D07B
:101EEC00594B5B68584A43F4E06353607B681B684A
:101EFC0003F00803002B05D0534B5B68524A43F4A4
:101F0C0060535360504B5B6823F0F0027B689B6816
:101F1C004D4913434B607B681B6803F00103002B96
:101F2C0040D07B685B68012B07D1474B1B6803F4DF
:101F3C000033002B15D101237FE07B685B68022BFB
:101F4C0007D1414B1B6803F00073002B09D101230F
:101F5C0073E03D4B1B6803F00203002B01D10123FE
:101F6C006BE0394B5B6823F003027B685B68364996
:101F7C0013434B60FFF744FAF8600AE0FFF740FAAE
:101F8C000246FB68D31A41F28832934201D90323EB
:101F9C0053E02D4B5B6803F00C027B685B689B0085
:101FAC009A42EBD1274B1B6803F007033A689A421D
:101FBC0010D2244B1B6823F0070222493B681343C1
:101FCC000B60204B1B6803F007033A689A4201D060
:101FDC00012332E07B681B6803F00403002B08D05C
:101FEC00194B5B6823F4E0627B68DB68164913438A
:101FFC004B607B681B6803F00803002B09D0124B65
:10200C005B6823F460527B681B69DB000E49134349
:10201C004B6000F021F802460B4B5B681B0903F088
:10202C000F030A49CB5C22FA03F3094A1360094BEC
:10203C001B681846FFF7A2F9002318461037BD4657
:10204C0080BD00BF0020024000100240A8290008FB
:10205C00200000202400002090B48AB000AF2A4B4E
:10206C003C1D0FCB84E80F0040F201233B80002382
:10207C00FB610023BB6100237B6200237B61002397
:10208C003B62224B5B68FB61FB6903F00C03042B86
:10209C0002D0082B03D02DE01D4B3B622DE0FB69D9
:1020AC009B0C03F00F0307F12802134413F8243C94
:1020BC007B61FB6903F48033002B13D0134B5B68FB
:1020CC005B0C03F0010307F12802134413F8283CBE
:1020DC00BB617B690E4A02FB03F2BB69B2FBF3F3F3
:1020EC007B6204E07B690B4A02FB03F37B627B6A35
:1020FC003B6202E0064B3B6200BF3B6A1846283746
:10210C00BD4690BC704700BF9829000800100240E3
:10211C0000127A0000093D0080B485B000AF7860F1
:10212C000A4B1B680A4AA2FB03235B0A7A6802FB70
:10213C0003F3FB6000BFFB685A1EFA60002BF9D159
:10214C0000BF00BF1437BD4680BC70472000002084
:10215C00D34D621080B582B000AF78607B68002BE5
:10216C0001D1012341E07B6893F83D30DBB2002BB9
:10217C0006D17B68002283F83C207868FFF754F87E
:10218C007B68022283F83D207B681A687B680433E5
:10219C001946104600F06AFA7B68012283F8462043
:1021AC007B68012283F83E207B68012283F83F2064
:1021BC007B68012283F840207B68012283F8412050
:1021CC007B68012283F842207B68012283F843203C
:1021DC007B68012283F844207B68012283F8452028
:1021EC007B68012283F83D20002318460837BD4642
:1021FC0080BD000080B485B000AF78607B6893F838
:10220C003D30DBB2012B01D0012335E07B6802228B
:10221C0083F83D207B681B68DA687B681B6842F09A
:10222C000102DA607B681B68164A934209D07B680E
:10223C001B68B3F1804F04D07B681B68124A934231
:10224C0011D17B681B689B6803F00703FB60FB687C
:10225C00062B10D07B681B681A687B681B6842F0E1
:10226C0001021A6007E07B681B681A687B681B68B0
:10227C0042F001021A60002318461437BD4680BC98
:10228C00704700BF002C01400004004080B582B0B4
:10229C0000AF78607B681B681B6903F00203022B9C
:1022AC0022D17B681B68DB6803F00203022B1BD175
:1022BC007B681B686FF002021A617B6801221A7737
:1022CC007B681B689B6903F00303002B03D07868C1
:1022DC0000F0B1F905E0786800F0A4F9786800F036
:1022EC00B3F97B6800221A777B681B681B6903F0C3
:1022FC000403042B22D17B681B68DB6803F0040306
:10230C00042B1BD17B681B686FF004021A617B687D
:10231C0002221A777B681B689B6903F44073002BBD
:10232C0003D0786800F087F905E0786800F07AF956
:10233C00786800F089F97B6800221A777B681B6843
:10234C001B6903F00803082B22D17B681B68DB6830
:10235C0003F00803082B1BD17B681B686FF0080285
:10236C001A617B6804221A777B681B68DB6903F0AF
:10237C000303002B03D0786800F05DF905E0786862
:10238C0000F050F9786800F05FF97B6800221A774A
:10239C007B681B681B6903F01003102B22D17B6830
:1023AC001B68DB6803F01003102B1BD17B681B68C8
:1023BC006FF010021A617B6808221A777B681B6821
:1023CC00DB6903F44073002B03D0786800F033F919
:1023DC0005E0786800F026F9786800F035F97B683C
:1023EC0000221A777B681B681B6903F00103012B21
:1023FC000ED17B681B68DB6803F00103012B07D14E
:10240C007B681B686FF001021A617868FEF768FF41
:10241C007B681B681B6903F08003802B0ED17B68E3
:10242C001B68DB6803F08003802B07D17B681B687B
:10243C006FF080021A61786800F067FA7B681B689D
:10244C001B6903F04003402B0ED17B681B68DB68D3
:10245C0003F04003402B07D17B681B686FF04002F0
:10246C001A61786800F0F9F87B681B681B6903F047
:10247C002003202B0ED17B681B68DB6803F0200344
:10248C00202B07D17B681B686FF020021A617868DB
:10249C0000F032FA00BF0837BD4680BD80B584B06D
:1024AC0000AF786039607B6893F83C30012B01D128
:1024BC000223B3E07B68012283F83C207B68022274
:1024CC0083F83D207B681B689B68FB60FB6823F0EE
:1024DC007703FB60FB6823F47F43FB607B681B681E
:1024EC00FA689A603B681B68B3F5005F3ED0B3F5A1
:1024FC00005F00F28780B3F5805F00F08580B3F554
:10250C00805F7FD8702B1AD0702B7BD8602B50D06B
:10251C00602B77D8502B3CD0502B73D8402B58D0F5
:10252C00402B6FD8302B64D0302B6BD8202B60D045
:10253C00202B67D8002B5CD0102B5AD062E07B6824
:10254C0018683B6899683B685A683B68DB6800F020
:10255C005CF97B681B689B68FB60FB6843F0770346
:10256C00FB607B681B68FA689A604EE07B681868B1
:10257C003B6899683B685A683B68DB6800F045F932
:10258C007B681B689A687B681B6842F480429A607F
:10259C003BE07B6818683B6859683B68DB681A4607
:1025AC0000F0BCF87B681B685021184600F013F94A
:1025BC002BE07B6818683B6859683B68DB681A46F7
:1025CC0000F0DAF87B681B686021184600F003F90C
:1025DC001BE07B6818683B6859683B68DB681A46E7
:1025EC0000F09CF87B681B684021184600F0F3F85B
:1025FC000BE07B681A683B681B681946104600F0B4
:10260C00EAF802E000BF00E000BF7B68012283F81B
:10261C003D207B68002283F83C20002318461037AD
:10262C00BD4680BD80B483B000AF786000BF0C376E
:10263C00BD4680BC704780B483B000AF786000BFEB
:10264C000C37BD4680BC704780B483B000AF786057
:10265C0000BF0C37BD4680BC704780B483B000AF60
:10266C00786000BF0C37BD4680BC704780B485B025
:10267C0000AF786039607B681B68FB607B68254A1B
:10268C00934207D07B68B3F1804F03D07B68224A1A
:10269C00934208D1FB6823F07003FB603B685B68D6
:1026AC00FA681343FB607B681A4A934207D07B6835
:1026BC00B3F1804F03D07B68174A934208D1FB6873
:1026CC0023F44073FB603B68DB68FA681343FB60E0
:1026DC00FB6823F080023B685B691343FB607B68FB
:1026EC00FA681A603B689A687B68DA623B681A6819
:1026FC007B689A627B68074A934203D13B681A69EC
:10270C007B681A637B6801225A6100BF1437BD468F
:10271C0080BC7047002C01400004004080B487B09E
:10272C0000AFF860B9607A60FB681B6A7B61FB687C
:10273C001B6A23F00102FB681A62FB689B693B6110
:10274C003B6923F0F0033B617B681B013A6913433F
:10275C003B617B6923F00A037B617A69BB68134395
:10276C007B61FB683A699A61FB687A691A6200BFFF
:10277C001C37BD4680BC704780B487B000AFF86092
:10278C00B9607A60FB681B6A23F01002FB681A625E
:10279C00FB689B697B61FB681B6A3B617B6923F46B
:1027AC0070437B617B681B037A6913437B613B69D4
:1027BC0023F0A0033B61BB681B013A6913433B61E7
:1027CC00FB687A699A61FB683A691A6200BF1C3728
:1027DC00BD4680BC704780B485B000AF786039606E
:1027EC007B689B68FB60FB6823F07003FB603A68B6
:1027FC00FB68134343F00703FB607B68FA689A603D
:10280C0000BF1437BD4680BC704780B487B000AFA2
:10281C00F860B9607A603B60FB689B687B617B69A0
:10282C0023F47F437B613B681A027B681A43BB68C5
:10283C0013437A6913437B61FB687A699A6000BF22
:10284C001C37BD4680BC704780B485B000AF786043
:10285C0039607B6893F83C30012B01D1022341E0B5
:10286C007B68012283F83C207B68022283F83D20A0
:10287C007B681B685B68FB607B681B689B68BB6044
:10288C00FB6823F07003FB603B681B68FA6813431A
:10289C00FB607B681B68FA685A607B681B68144A8B
:1028AC00934209D07B681B68B3F1804F04D07B68DE
:1028BC001B68104A93420CD1BB6823F08003BB60A9
:1028CC003B685B68BA681343BB607B681B68BA687B
:1028DC009A607B68012283F83D207B68002283F894
:1028EC003C20002318461437BD4680BC704700BFFF
:1028FC00002C01400004004080B483B000AF78602D
:10290C0000BF0C37BD4680BC704780B483B000AFAD
:10291C00786000BF0C37BD4680BC704770B5002690
:10292C000C4D0D4C641BA410A64209D100F022F8EA
:10293C0000260A4D0A4C641BA410A64205D170BD9A
:10294C0055F8043B98470136EEE755F8043B984799
:10295C000136F2E7B8290008B8290008B8290008A0
:10296C00BC29000803460244934200D1704703F887
:10297C00011BF9E7F8B500BFF8BC08BC9E467047D0
:0C298C00F8B500BFF8BC08BC9E467047C0
:1029980002030405060708090A0B0C0D0E0F101098
:1029A80000000000000000000102030406070809F7
:0429B80031010008E1
:0429BC000D01000801
:1029C00005000000030000000200000001000000FC
:1029D0000500000000000000080000000A000000E0
:0C29E0000024F4001000000001000000C2
:0400000508001311CB
:00000001FF
