:020000040800F2
:1000000000280020C512000831120008371200082D
:100010003D120008431200084912000800000000C9
:100020000000000000000000000000004F12000867
:100030005B1200080000000067120008731200083D
:100040000D1300080D1300080D1300080D13000810
:100050000D1300080D1300080D1300080D13000800
:100060000D1300080D1300080D1300080D130008F0
:100070000D1300080D1300080D1300080D130008E0
:100080000D1300080D1300080D1300080D130008D0
:100090000D1300080D1300080D1300080D130008C0
:1000A0000D1300080D1300080D1300080D130008B0
:1000B000811200080D130008000000000D13000855
:1000C0000D13000800000000000000000D130008E0
:1000D000000000000D1300080D13000800000000D0
:1000E0000D1300080D1300080D1300080000000098
:1000F0000000000000000000000000000000000000
:0C01000000000000000000005FF808F1A3
:10010C0010B5054C237833B9044B13B10448AFF345
:10011C0000800123237010BD2C0000200000000083
:10012C003429000808B5034B1BB103490348AFF34E
:10013C00008008BD000000003000002034290008B9
:10014C0080B500AF394B1B68032B6BD801A252F85A
:10015C0023F000BF710100089B010008CD010008CD
:10016C00FF01000800F080FD304B01221A60304B7B
:10017C001B68304A136000F065FC2D4B1B68184659
:10018C0000F060F80346184600F03EFF4BE000F02C
:10019C0081FD294B1B68012B0FD1244B02221A60C5
:1001AC00264B1B68234A1360244B1B68184600F02F
:1001BC0049F80346184600F027FF00F043FC32E0F4
:1001CC0000F07EFD1C4B1B68012B0FD1174B03223B
:1001DC001A601B4B1B68174A1360194B1B68184697
:1001EC0000F030F80346184600F00EFF00F02AFC31
:1001FC0019E000F07BFD104B1B68012B0FD10B4B52
:10020C0001221A600A4B1B680A4A1360084B1B68D0
:10021C00184600F017F80346184600F0F5FE00F0FB
:10022C0011FC00E000BF00BF80BD00BF48000020F3
:10023C000000002050000020880000200400002056
:10024C000800002080B483B000AF78607B684FF466
:10025C007A7202FB03F318460C37BD4680BC70471C
:10026C0080B500AF394B1B68032B6BD801A252F839
:10027C0023F000BF91020008BB020008ED02000849
:10028C001F03000800F048FD304B02221A60304B6F
:10029C001B68304A136000F0EFFB2D4B1B681846AF
:1002AC00FFF7D0FF0346184600F0C8FE4BE000F005
:1002BC0049FD294B1B68012B0FD1244B02221A60DC
:1002CC00234B1B68234A1360214B1B681846FFF70E
:1002DC00B9FF0346184600F0B1FE00F0CDFB32E04A
:1002EC0000F046FD1C4B1B68012B0FD1174B032252
:1002FC001A601A4B1B68174A1360184B1B68184678
:10030C00FFF7A0FF0346184600F098FE00F0B4FB80
:10031C0019E000F043FD104B1B68012B0FD10B4B68
:10032C0001221A600E4B1B680A4A13600C4B1B68A7
:10033C001846FFF787FF0346184600F07FFE00F0D3
:10034C009BFB00E000BF00BF80BD00BF4C00002045
:10035C0004000020540000208C0000200800002025
:10036C000000002080B483B000AF0346FB71FB7922
:10037C00022B01D9002307E0FB79064AD35C002B42
:10038C000CBF01230023DBB218460C37BD4680BCE2
:10039C00704700BF5800002080B483B000AF034604
:1003AC00FB71FB79022B01D9FF2307E0FB79064A8D
:1003BC00D35C012B0CBF01230023DBB218460C3796
:1003CC00BD4680BC704700BF6800002080B582B07D
:1003DC0000AF0346FB71FB79514AD35C022B69D009
:1003EC00022B00F39980002B02D0012B1AD093E042
:1003FC00FB791846FFF7B6FF0346002B00F0898007
:10040C00FB79474A0121D154FB79464A002122F855
:10041C001310FB79444A0021D154FB79434A012142
:10042C00D15476E0FB791846FFF79CFF0346002B6E
:10043C000DD1FB793A4A0021D154FB793B4A00217A
:10044C00D154FB79374A002122F8131063E0FB7971
:10045C00344A32F81330B3F5967F09D2FB79314A1E
:10046C0032F81320013291B22E4A22F8131011E007
:10047C00FB792D4A0121D154FB792C4A0121D1540D
:10048C00FB792B4A002122F81310FB79254A002115
:10049C0022F81310FB791846FFF77EFF0346002B5A
:1004AC0039D0FB791E4A0221D154FB791E4A002116
:1004BC00D15430E0FB791846FFF754FF0346002B6C
:1004CC000DD1FB79164A0021D154FB79174A002132
:1004DC00D154FB79164A002122F813101CE0FB7949
:1004EC00134A32F81330632B09D8FB79104A32F8CF
:1004FC001320013291B20E4A22F813100CE0FB7952
:10050C000A4A0121D154FB79094A002122F813101F
:10051C0002E000BF00E000BF00BF0837BD4680BD51
:10052C008000002070000020680000206C0000207B
:10053C007800002090B583B000AF0023FB7154E02D
:10054C00FA79FB792D49895C2D4AD154FA79FB79DA
:10055C002C49895C294AD154FB79022B1CD0022BE3
:10056C0025DC002B02D0012B0BD020E0FC794FF4C2
:10057C000051254801F0B0F903461A46214B1A5593
:10058C0016E0FC794FF480411F4801F0A5F90346B1
:10059C001A461C4B1A550BE0FC794FF400411A48D3
:1005AC0001F09AF903461A46164B1A5500E000BFA3
:1005BC00FB79144AD25CFB791049CB5C9A4211D17D
:1005CC00FB790E4AD25CFB790D49CB5C9A4209D17E
:1005DC00FA79FB790A49895C0C4AD154FB791846A3
:1005EC00FFF7F4FEFB790133FB71FB79022BA7D9E2
:1005FC0000BF00BF0C37BD4690BD00BF600000209F
:10060C00640000205C000020001001405800002015
:10061C0080B582B000AF78607B68092B00F28081D6
:10062C0001A252F823F000BF5D060008A5060008E1
:10063C00ED060008350700087D070008C50700080F
:10064C000D080008550800089D080008E50800087A
:10065C0000220121C64801F056F900220221C448AB
:10066C0001F051F900220421C14801F04CF900229B
:10067C000821BF4801F047F900221021BC4801F0C5
:10068C0042F900222021BA4801F03DF90122402113
:10069C00B74801F038F967E101220121B44801F0B3
:1006AC0032F900220221B24801F02DF90022042176
:1006BC00AF4801F028F901220821AD4801F023F9D7
:1006CC0001221021AA4801F01EF901222021A8487C
:1006DC0001F019F901224021A54801F014F943E178
:1006EC0000220121A24801F00EF900220221A048AB
:1006FC0001F009F9012204219D4801F004F90022BE
:10070C0008219B4801F0FFF800221021984801F0C5
:10071C00FAF801222021964801F0F5F80022402138
:10072C00934801F0F0F81FE100220121904801F0FC
:10073C00EAF8002202218E4801F0E5F8002204219B
:10074C008B4801F0E0F800220821894801F0DBF821
:10075C0001221021864801F0D6F80122202184487C
:10076C0001F0D1F800224021814801F0CCF8FBE0E7
:10077C00012201217E4801F0C6F8002202217C48AA
:10078C0001F0C1F800220421794801F0BCF80122E3
:10079C000821774801F0B7F801221021744801F0C4
:1007AC00B2F800222021724801F0ADF8002240215D
:1007BC006F4801F0A8F8D7E0002201216C4801F045
:1007CC00A2F8012202216A4801F09DF800220421BE
:1007DC00674801F098F800220821654801F093F869
:1007EC0001221021624801F08EF80022202160487D
:1007FC0001F089F8002240215D4801F084F8B3E053
:10080C00002201215A4801F07EF8012202215848A9
:10081C0001F079F800220421554801F074F8002207
:10082C000821534801F06FF800221021504801F0C4
:10083C006AF8002220214E4801F065F80022402180
:10084C004B4801F060F88FE000220121484801F08C
:10085C005AF800220221464801F055F800220421E2
:10086C00434801F050F801220821414801F04BF8AF
:10087C00012210213E4801F046F8012220213C487B
:10088C0001F041F801224021394801F03CF86BE0BD
:10089C0000220121364801F036F8002202213448AA
:1008AC0001F031F800220421314801F02CF800222B
:1008BC0008212F4801F027F8002210212C4801F0C4
:1008CC0022F8002220212A4801F01DF800224021A4
:1008DC00274801F018F847E000220121244801F0D4
:1008EC0012F800220221224801F00DF80022042106
:1008FC001F4801F008F8002208211D4801F003F8F8
:10090C00012210211A4800F0FEFF00222021184875
:10091C0000F0F9FF00224021154800F0F4FF23E01D
:10092C0001220121124800F0EEFF012202211048A1
:10093C0000F0E9FF012204210D4800F0E4FF012240
:10094C0008210B4800F0DFFF01221021084800F0BD
:10095C00DAFF01222021064800F0D5FF01224021B8
:10096C00034800F0D0FF00BF00BF0837BD4680BD74
:10097C00000C014080B582B000AF78607B68032B1F
:10098C002AD801A252F823F0A5090008B5090008DD
:10099C00C5090008D5090008124A7B6852F82330B3
:1009AC001846FFF735FE18E00E4A7B6852F82330E4
:1009BC001846FFF72DFE10E00A4A7B6852F82330E8
:1009CC001846FFF725FE08E0064A7B6852F82330EC
:1009DC001846FFF71DFE00E000BF00BF0837BD46FC
:1009EC0080BD00BF0C00002080B582B000AF7860E5
:1009FC00786800F05BF800F0A1F80020FFF7BAFF70
:100A0C0000F0BAF80120FFF7B5FF00F00FF900BFB6
:100A1C000837BD4680BD80B582B000AF786078687D
:100A2C0000F068F800F0C6F80220FFF7A3FF00F012
:100A3C00DFF80320FFF79EFF00F0F8F800BF08373F
:100A4C00BD4680BD80B500AF094B1B68012B0DD195
:100A5C00084B1B681846FFF7C7FF064B1B68013B8A
:100A6C00044A13604FF47A7000F002FB00BF80BDA3
:100A7C00900000205000002080B500AF094B1B688F
:100A8C00012B0DD1084B1B681846FFF7C4FF064B12
:100A9C001B68013B044A13604FF47A7000F0E8FACB
:100AAC0000BF80BD900000205400002080B483B0B3
:100ABC0000AF78607B680D4A82FB03129210DB1743
:100ACC00D31A0B4A13607968084B83FB01239A10E5
:100ADC00CB17D21A13469B0013445B00CA1A044B63
:100AEC005A6000BF0C37BD4680BC704767666666AF
:100AFC000C00002080B483B000AF78607B680D4A96
:100B0C0082FB03129210DB17D31A0B4A936079689D
:100B1C00084B83FB01239A10CB17D21A13469B0068
:100B2C0013445B00CA1A044BDA6000BF0C37BD4695
:100B3C0080BC7047676666660C00002080B500AF0D
:100B4C0000224FF480710B4800F0DDFE01224FF4BF
:100B5C000071084800F0D7FE01224FF4806105486F
:100B6C0000F0D1FE01224FF40061024800F0CBFEF0
:100B7C0000BF80BD0008014080B500AF01224FF4DA
:100B8C0080710B4800F0BFFE00224FF40071084842
:100B9C0000F0B9FE01224FF48061054800F0B3FE6D
:100BAC0001224FF40061024800F0ADFE00BF80BD91
:100BBC000008014080B500AF01224FF480710B4852
:100BCC0000F0A1FE01224FF40071084800F09BFEDA
:100BDC0000224FF48061054800F095FE01224FF48D
:100BEC000061024800F08FFE00BF80BD000801408C
:100BFC0080B500AF01224FF480710B4800F083FEEA
:100C0C0001224FF40071084800F07DFE01224FF4E0
:100C1C008061054800F077FE00224FF40061024825
:100C2C0000F071FE00BF80BD0008014080B500AF30
:100C3C0000224FF480710B4800F065FE00224FF447
:100C4C000071084800F05FFE00224FF480610548F7
:100C5C0000F059FE00224FF40061024800F053FEF0
:100C6C0000BF80BD0008014080B500AF0122042107
:100C7C00074800F048FE01221021054800F043FE11
:100C8C0001220821024800F03EFE00BF80BD00BFDB
:100C9C000008014080B500AF00220421074800F095
:100CAC0032FE01221021054800F02DFE0122082100
:100CBC00024800F028FE00BF80BD00BF00080140C4
:100CCC0080B500AF01220421074800F01CFE002271
:100CDC001021054800F017FE01220821024800F0FF
:100CEC0012FE00BF80BD00BF0008014080B500AF00
:100CFC0001220421074800F006FE012210210548BC
:100D0C0000F001FE00220821024800F0FCFD00BFAB
:100D1C0080BD00BF0008014080B500AF012220213A
:100D2C00074800F0F0FD01228021054800F0EBFDA2
:100D3C0001224021024800F0E6FD00BF80BD00BF4B
:100D4C000008014080B500AF00222021074800F0C8
:100D5C00DAFD01228021054800F0D5FD0122402159
:100D6C00024800F0D0FD00BF80BD00BF000801406C
:100D7C0080B500AF01222021074800F0C4FD0022FD
:100D8C008021054800F0BFFD01224021024800F0FF
:100D9C00BAFD00BF80BD00BF0008014080B500AFA8
:100DAC0001222021074800F0AEFD012280210548D8
:100DBC0000F0A9FD00224021024800F0A4FD00BF74
:100DCC0080BD00BF0008014080B500AF00F09AFA6A
:100DDC0000F01CF800F0A2F800F054F8084801F0FC
:100DEC00E3F9084B00221A60074B00221A604FF4FB
:100DFC007A7000F03DF9FFF7A3F9FFF731FAFAE743
:100E0C00AC000020480000204C00002080B590B0C1
:100E1C0000AF07F1180328220021184601F07CFDD1
:100E2C003B1D00221A605A609A60DA601A61022334
:100E3C00BB610123BB621023FB6200237B6307F1C0
:100E4C001803184600F078FD0346002B01D000F083
:100E5C00D5F80F237B600023BB600023FB600023CD
:100E6C003B6100237B613B1D0021184600F0E4FF31
:100E7C000346002B01D000F0C1F800BF4037BD463F
:100E8C0080BD000080B586B000AF07F108030022DA
:100E9C001A605A609A60DA603B4600221A605A6007
:100EAC001D4B4FF080421A601B4B41F63F725A604B
:100EBC00194B00229A60184B0922DA60164B00225B
:100ECC001A61154B00229A61134801F01DF9034673
:100EDC00002B01D000F092F84FF48053BB6007F167
:100EEC00080319460C4801F0B3FA0346002B01D055
:100EFC0000F084F800233B6000237B603B461946DE
:100F0C00054801F07BFC0346002B01D000F076F87D
:100F1C0000BF1837BD4680BDAC00002080B588B03E
:100F2C0000AF07F1100300221A605A609A60DA6071
:100F3C002E4B9B692D4A43F0100393612B4B9B69FD
:100F4C0003F01003FB60FB68284B9B69274A43F0B6
:100F5C0004039361254B9B6903F00403BB60BB68DE
:100F6C00224B9B69214A43F0080393611F4B9B69F9
:100F7C0003F008037B607B68002240F6FE711C487E
:100F8C0000F0C1FC00227F211A4800F0BCFC4FF499
:100F9C0060433B6100237B610123BB6107F11003BC
:100FAC001946154800F01EFB40F6FE733B61012309
:100FBC007B610023BB610223FB6107F1100319461F
:100FCC000B4800F00FFB7F233B6101237B61002367
:100FDC00BB610223FB6107F110031946054800F0C1
:100FEC0001FB00BF2037BD4680BD00BF0010024092
:100FFC0000080140000C01400010014080B400AF1B
:10100C0072B600BFFEE7000080B483B000AF78601A
:10101C00074B1B687A6892FBF3F3064A1360064B86
:10102C0000221A6000BF0C37BD4680BC704700BF61
:10103C001C0000209C0000208800002080B483B09D
:10104C0000AF7860074B1B687A6892FBF3F3064A93
:10105C001360064B00221A6000BF0C37BD4680BCE3
:10106C00704700BF1C000020A00000208C00002056
:10107C0080B483B000AF7860074B1B687A6892FB32
:10108C00F3F3064A1360064B00221A6000BF0C37BC
:10109C00BD4680BC704700BF1C000020A40000208F
:1010AC009000002080B400AF294B1B68002B0BDD97
:1010BC00274B1B68013B264A1360254B1B68002BF2
:1010CC0002DC244B01221A60234B1B68002B0BDD26
:1010DC00214B1B68013B204A13601F4B1B68002BE4
:1010EC0002DC1E4B01221A601D4B1B68002B0BDD12
:1010FC001B4B1B68013B1A4A1360194B1B68002BD6
:10110C0002DC184B01221A60174B1B68002B0BDDFD
:10111C00154B1B68013B144A1360134B1B68002BC7
:10112C0002DC124B01221A60114B1B68002B0BDDE9
:10113C000F4B1B68013B0E4A13600D4B1B68002BB9
:10114C0002DC0C4B01221A6000BFBD4680BC70470C
:10115C0098000020840000209C00002088000020C3
:10116C00A00000208C000020A40000209000002093
:10117C00A80000209400002080B485B000AF154B6F
:10118C009B69144A43F001039361124B9B6903F072
:10119C000103BB60BB680F4BDB690E4A43F0805305
:1011AC00D3610C4BDB6903F080537B607B680A4B8B
:1011BC005B68FB60FB6823F0E063FB60FB6843F05B
:1011CC008063FB60044AFB68536000BF1437BD4664
:1011DC0080BC7047001002400000014080B584B014
:1011EC0000AF78607B681B68B3F1804F13D10C4B58
:1011FC00DB690B4A43F00103D361094BDB6903F054
:10120C000103FB60FB68002200211C2000F0B3F9F5
:10121C001C2000F0CCF900BF1037BD4680BD00BFCC
:10122C000010024080B400AFFEE780B400AFFEE7D0
:10123C0080B400AFFEE780B400AFFEE780B400AF2F
:10124C00FEE780B400AF00BFBD4680BC704780B4E1
:10125C0000AF00BFBD4680BC704780B400AF00BF7C
:10126C00BD4680BC704780B500AF00F091F800BF60
:10127C0080BD000080B500AF024800F0E1FF00BF68
:10128C0080BD00BFAC00002080B400AF00BFBD46E5
:10129C0080BC704780B582B000AF78607B681B68FB
:1012AC00B3F1804F03D1FFF745F9FFF7FBFE00BF09
:1012BC000837BD4680BD00000C480D490D4A00237F
:1012CC0002E0D458C4500433C4188C42F9D30A4AEF
:1012DC000A4C002301E013600432A242FBD3FFF757
:1012EC00D3FF01F0F5FAFFF76FFD70470000002007
:1012FC002C000020742900082C000020F80000208D
:10130C00FEE7000080B500AF084B1B68074A43F0AE
:10131C0010031360032000F023F90F2000F008F8ED
:10132C00FFF72AFF0023184680BD00BF00200240B3
:10133C0080B582B000AF7860124B1A68124B1B78E4
:10134C0019464FF47A73B3FBF1F3B2FBF3F318467F
:10135C0000F03BF90346002B01D001230EE07B6823
:10136C000F2B0AD8002279684FF0FF3000F003F9F8
:10137C00064A7B681360002300E0012318460837F7
:10138C00BD4680BD20000020280000202400002045
:10139C0080B400AF054B1B781A46054B1B681344F1
:1013AC00034A136000BFBD4680BC70472800002074
:1013BC00F400002080B400AF024B1B681846BD46F9
:1013CC0080BC7047F400002080B485B000AF78601A
:1013DC007B6803F00703FB600C4BDB68BB60BA68EF
:1013EC004FF6FF031340BB60FB681A02BB68134344
:1013FC0043F0BF6343F40033BB60044ABB68D36063
:10140C0000BF1437BD4680BC704700BF00ED00E044
:10141C0080B400AF044BDB681B0A03F007031846CB
:10142C00BD4680BC704700BF00ED00E080B483B0C7
:10143C0000AF0346FB7197F90730002B0BDBFB79F0
:10144C0003F01F02064997F907305B09012000FAE7
:10145C0002F241F8232000BF0C37BD4680BC704718
:10146C0000E100E080B483B000AF03463960FB714B
:10147C0097F90730002B0ADB3B68DAB20C4997F975
:10148C0007301201D2B20B4483F800230AE03B6808
:10149C00DAB20849FB7903F00F03043B1201D2B214
:1014AC000B441A7600BF0C37BD4680BC704700BF9A
:1014BC0000E100E000ED00E080B489B000AFF8601E
:1014CC00B9607A60FB6803F00703FB61FB69C3F149
:1014DC000703042B28BF0423BB61FB690433062BD1
:1014EC0002D9FB69033B00E000237B614FF0FF3224
:1014FC00BB6902FA03F3DA43BB681A407B699A4072
:10150C004FF0FF317B6901FA03F3D9437B680B4041
:10151C00134318462437BD4680BC704780B582B053
:10152C0000AF78607B68013BB3F1807F01D301236E
:10153C000FE00A4A7B68013B53600F214FF0FF30EC
:10154C00FFF790FF054B00229A60044B07221A60AC
:10155C00002318460837BD4680BD00BF10E000E0F0
:10156C0080B582B000AF78607868FFF72DFF00BFC0
:10157C000837BD4680BD80B586B000AF0346B96064
:10158C007A60FB7300237B61FFF742FF78617A6816
:10159C00B9687869FFF790FF024697F90F3011464A
:1015AC001846FFF75FFF00BF1837BD4680BD80B5FA
:1015BC0082B000AF0346FB7197F907301846FFF76E
:1015CC0035FF00BF0837BD4680BD80B582B000AF87
:1015DC0078607868FFF7A2FF034618460837BD46C7
:1015EC0080BD000080B48BB000AF78603960002300
:1015FC007B6200233B6248E101227B6A02FA03F31F
:10160C00FB613B681B68FA691340BB61BA69FB69F3
:10161C009A4240F037813B685B68A34A93425ED0A4
:10162C00A14A934275D8A14A934258D09F4A9342FB
:10163C006FD89F4A934252D09D4A934269D89D4A93
:10164C0093424CD09B4A934263D89B4A934246D0D8
:10165C00994A93425DD8122B2AD8122B59D801A241
:10166C0052F823F0EB160008C5160008D716000830
:10167C00191700081F1700081F1700081F1700086C
:10168C001F1700081F1700081F1700081F17000856
:10169C001F1700081F1700081F1700081F17000846
:1016AC001F1700081F170008CD160008E1160008C8
:1016BC00824A934213D02CE03B68DB683B6229E002
:1016CC003B68DB6804333B6224E03B68DB6808332F
:1016DC003B621FE03B68DB680C333B621AE03B6803
:1016EC009B68002B02D104233B6213E03B689B6890
:1016FC00012B05D108233B627B68FA691A6109E06A
:10170C0008233B627B68FA695A6103E000233B6261
:10171C0000E000BFBB69FF2B01D87B6801E07B6850
:10172C0004337B61BB69FF2B02D87B6A9B0002E010
:10173C007B6A083B9B003B617B691A680F213B6904
:10174C0001FA03F3DB431A40396A3B6901FA03F3EC
:10175C001A437B691A603B685B6803F08053002B6B
:10176C0000F09080564B9B69554A43F001039361FE
:10177C00534B9B6903F00103BB60BB68514A7B6A06
:10178C009B08023352F82330FB607B6A03F003039F
:10179C009B000F2202FA03F3DB43FA681340FB6051
:1017AC007B68494A93420DD07B68484A934207D0E4
:1017BC007B68474A934201D1022304E0032302E0F1
:1017CC00012300E000237A6A02F0030292009340A6
:1017DC00FA681343FB603B497B6A9B080233FA6847
:1017EC0041F823203B685B6803F48033002B06D060
:1017FC00384B1A683749BB6913430B6006E0354B0D
:10180C001A68BB69DB43334913400B603B685B6868
:10181C0003F40033002B06D02E4B5A682D49BB69BC
:10182C0013434B6006E02B4B5A68BB69DB432949D9
:10183C0013404B603B685B6803F48013002B06D0AD
:10184C00244B9A682349BB6913438B6006E0214BF8
:10185C009A68BB69DB431F4913408B603B685B682C
:10186C0003F40013002B06D01A4BDA681949BB6934
:10187C001343CB6006E0174BDA68BB69DB431549B1
:10188C001340CB607B6A01337B623B681A687B6ACE
:10189C0022FA03F3002B7FF4AFAE00BF00BF2C374E
:1018AC00BD4680BC704700BF0000321000003110F4
:1018BC000000221000002110000012100000111076
:1018CC00001002400000014000080140000C0140E3
:1018DC00001001400004014080B485B000AF786076
:1018EC000B467B807B689A687B881340002B02D068
:1018FC000123FB7301E00023FB73FB7B18461437B9
:10190C00BD4680BC704780B483B000AF78600B4696
:10191C007B8013467B707B78002B03D07A887B68A6
:10192C001A6103E07B881A047B681A6100BF0C37CC
:10193C00BD4680BC7047000080B586B000AF7860B3
:10194C007B68002B01D101236CE27B681B6803F0E0
:10195C000103002B00F08780924B5B6803F00C03B3
:10196C00042B0CD08F4B5B6803F00C03082B12D1AB
:10197C008C4B5B6803F48033B3F5803F0BD1894B00
:10198C001B6803F40033002B6CD07B685B68002B66
:10199C0068D1012346E27B685B68B3F5803F06D1D2
:1019AC00804B1B687F4A43F4803313602EE07B68C6
:1019BC005B68002B0CD17B4B1B687A4A23F4803379
:1019CC001360784B1B68774A23F4802313601DE067
:1019DC007B685B68B3F5A02F0CD1724B1B68714A06
:1019EC0043F4802313606F4B1B686E4A43F48033BF
:1019FC0013600BE06B4B1B686A4A23F48033136053
:101A0C00684B1B68674A23F4802313607B685B6810
:101A1C00002B13D0FFF7CEFC386108E0FFF7CAFCAF
:101A2C0002463B69D31A642B01D90323FAE15D4BBF
:101A3C001B6803F40033002BF0D014E0FFF7BAFC62
:101A4C00386108E0FFF7B6FC02463B69D31A642BF9
:101A5C0001D90323E6E1534B1B6803F40033002B3D
:101A6C00F0D100E000BF7B681B6803F00203002B81
:101A7C0063D04C4B5B6803F00C03002B0BD0494B31
:101A8C005B6803F00C03082B1CD1464B5B6803F41A
:101A9C008033002B16D1434B1B6803F00203002B41
:101AAC0005D07B681B69012B01D00123BAE13D4BAA
:101ABC001B6823F0F8027B685B69DB003949134330
:101ACC000B603AE07B681B69002B20D0364B01225F
:101ADC001A60FFF76FFC386108E0FFF76BFC0246F9
:101AEC003B69D31A022B01D903239BE12D4B1B68B5
:101AFC0003F00203002BF0D02A4B1B6823F0F802F2
:101B0C007B685B69DB00274913430B6015E0264BB0
:101B1C0000221A60FFF74EFC386108E0FFF74AFC20
:101B2C0002463B69D31A022B01D903237AE11D4BE0
:101B3C001B6803F00203002BF0D17B681B6803F0D9
:101B4C000803002B3AD07B689B69002B19D0174BEC
:101B5C0001221A60FFF72EFC386108E0FFF72AFC1F
:101B6C0002463B69D31A022B01D903235AE10D4BD0
:101B7C005B6A03F00203002BF0D0012000F0A6FA00
:101B8C001CE00A4B00221A60FFF714FC38610FE0CE
:101B9C00FFF710FC02463B69D31A022B08D903232A
:101BAC0040E100BF0010024000004242800442426B
:101BBC009E4B5B6A03F00203002BE9D17B681B6828
:101BCC0003F00403002B00F0A6800023FB75974B59
:101BDC00DB6903F08053002B0DD1944BDB69934AE6
:101BEC0043F08053D361914BDB6903F08053BB60AE
:101BFC00BB680123FB758E4B1B6803F48073002BB1
:101C0C0018D18B4B1B688A4A43F480731360FFF71F
:101C1C00D1FB386108E0FFF7CDFB02463B69D31AD4
:101C2C00642B01D90323FDE0814B1B6803F4807303
:101C3C00002BF0D07B68DB68012B06D17B4B1B6A39
:101C4C007A4A43F0010313622DE07B68DB68002BBA
:101C5C000CD1764B1B6A754A23F001031362734B4C
:101C6C001B6A724A23F0040313621CE07B68DB6876
:101C7C00052B0CD16D4B1B6A6C4A43F004031362A9
:101C8C006A4B1B6A694A43F0010313620BE0674B12
:101C9C001B6A664A23F001031362644B1B6A634A96
:101CAC0023F0040313627B68DB68002B15D0FFF76D
:101CBC0081FB38610AE0FFF77DFB02463B69D31AD2
:101CCC0041F28832934201D90323ABE0574B1B6A94
:101CDC0003F00203002BEED014E0FFF76BFB38612E
:101CEC000AE0FFF767FB02463B69D31A41F28832E0
:101CFC00934201D9032395E04C4B1B6A03F002037A
:101D0C00002BEED1FB7D012B05D1484BDB69474AFB
:101D1C0023F08053D3617B68DB69002B00F081805A
:101D2C00424B5B6803F00C03082B61D07B68DB69CA
:101D3C00022B46D13F4B00221A60FFF73BFB386168
:101D4C0008E0FFF737FB02463B69D31A022B01D997
:101D5C00032367E0354B1B6803F00073002BF0D1B5
:101D6C007B681B6AB3F5803F08D1304B5B6823F46A
:101D7C0000327B689B682D4913434B602B4B5B688F
:101D8C0023F474127B68196A7B685B6A0B432749DE
:101D9C0013434B60274B01221A60FFF70BFB386192
:101DAC0008E0FFF707FB02463B69D31A022B01D967
:101DBC00032337E01D4B1B6803F00073002BF0D09E
:101DCC002FE01C4B00221A60FFF7F4FA386108E090
:101DDC00FFF7F0FA02463B69D31A022B01D9032311
:101DEC0020E0124B1B6803F00073002BF0D118E0BD
:101DFC007B68DB69012B01D1012313E00B4B5B6882
:101E0C00FB60FB6803F480327B681B6A9A4206D144
:101E1C00FB6803F470127B685B6A9A4201D0012361
:101E2C0000E0002318461837BD4680BD0010024064
:101E3C00007000406000424280B584B000AF786012
:101E4C0039607B68002B01D10123D0E06A4B1B6801
:101E5C0003F007033A689A4210D9674B1B6823F0CA
:101E6C00070265493B6813430B60634B1B6803F027
:101E7C0007033A689A4201D00123B8E07B681B68DB
:101E8C0003F00203002B20D07B681B6803F00403D3
:101E9C00002B05D0594B5B68584A43F4E063536000
:101EAC007B681B6803F00803002B05D0534B5B6861
:101EBC00524A43F460535360504B5B6823F0F0027A
:101ECC007B689B684D4913434B607B681B6803F030
:101EDC000103002B40D07B685B68012B07D1474B7B
:101EEC001B6803F40033002B15D101237FE07B68C2
:101EFC005B68022B07D1414B1B6803F00073002B6E
:101F0C0009D1012373E03D4B1B6803F00203002B46
:101F1C0001D101236BE0394B5B6823F003027B6832
:101F2C005B68364913434B60FFF744FAF8600AE0EC
:101F3C00FFF740FA0246FB68D31A41F2883293420B
:101F4C0001D9032353E02D4B5B6803F00C027B6833
:101F5C005B689B009A42EBD1274B1B6803F007038D
:101F6C003A689A4210D2244B1B6823F0070222498C
:101F7C003B6813430B60204B1B6803F007033A6864
:101F8C009A4201D0012332E07B681B6803F0040302
:101F9C00002B08D0194B5B6823F4E0627B68DB688C
:101FAC00164913434B607B681B6803F00803002B36
:101FBC0009D0124B5B6823F460527B681B69DB0011
:101FCC000E4913434B6000F021F802460B4B5B6843
:101FDC001B0903F00F030A49CB5C22FA03F3094AED
:101FEC001360094B1B681846FFF7A2F9002318462B
:101FFC001037BD4680BD00BF0020024000100240DB
:10200C005C290008200000202400002090B48AB035
:10201C0000AF2A4B3C1D0FCB84E80F0040F201238C
:10202C003B800023FB610023BB6100237B62002308
:10203C007B6100233B62224B5B68FB61FB6903F015
:10204C000C03042B02D0082B03D02DE01D4B3B625C
:10205C002DE0FB699B0C03F00F0307F128021344DE
:10206C0013F8243C7B61FB6903F48033002B13D001
:10207C00134B5B685B0C03F0010307F1280213445C
:10208C0013F8283CBB617B690E4A02FB03F2BB6967
:10209C00B2FBF3F37B6204E07B690B4A02FB03F3B4
:1020AC007B627B6A3B6202E0064B3B6200BF3B6A91
:1020BC0018462837BD4690BC704700BF4C29000815
:1020CC000010024000127A0000093D0080B485B077
:1020DC0000AF78600A4B1B680A4AA2FB03235B0A19
:1020EC007A6802FB03F3FB6000BFFB685A1EFA60C0
:1020FC00002BF9D100BF00BF1437BD4680BC704720
:10210C0020000020D34D621080B582B000AF786003
:10211C007B68002B01D1012341E07B6893F83D30B3
:10212C00DBB2002B06D17B68002283F83C20786858
:10213C00FFF754F87B68022283F83D207B681A680D
:10214C007B6804331946104600F06AFA7B6801225A
:10215C0083F846207B68012283F83E207B680122AD
:10216C0083F83F207B68012283F840207B680122A2
:10217C0083F841207B68012283F842207B6801228E
:10218C0083F843207B68012283F844207B6801227A
:10219C0083F845207B68012283F83D2000231846F4
:1021AC000837BD4680BD000080B485B000AF7860B4
:1021BC007B6893F83D30DBB2012B01D0012335E075
:1021CC007B68022283F83D207B681B68DA687B6899
:1021DC001B6842F00102DA607B681B68164A934266
:1021EC0009D07B681B68B3F1804F04D07B681B68F7
:1021FC00124A934211D17B681B689B6803F007035A
:10220C00FB60FB68062B10D07B681B681A687B6828
:10221C001B6842F001021A6007E07B681B681A68B1
:10222C007B681B6842F001021A60002318461437C1
:10223C00BD4680BC704700BF002C0140000400402C
:10224C0080B582B000AF78607B681B681B6903F0B7
:10225C000203022B22D17B681B68DB6803F00203AC
:10226C00022B1BD17B681B686FF002021A617B6822
:10227C0001221A777B681B689B6903F00303002B10
:10228C0003D0786800F0B1F905E0786800F0A4F9A3
:10229C00786800F0B3F97B6800221A777B681B68BA
:1022AC001B6903F00403042B22D17B681B68DB68D9
:1022BC0003F00403042B1BD17B681B686FF0040232
:1022CC001A617B6802221A777B681B689B6903F48E
:1022DC004073002B03D0786800F087F905E078682C
:1022EC0000F07AF9786800F089F97B6800221A7797
:1022FC007B681B681B6903F00803082B22D17B68E1
:10230C001B68DB6803F00803082B1BD17B681B6878
:10231C006FF008021A617B6804221A777B681B68CD
:10232C00DB6903F00303002B03D0786800F05DF940
:10233C0005E0786800F050F9786800F05FF97B6888
:10234C0000221A777B681B681B6903F01003102BA3
:10235C0022D17B681B68DB6803F01003102B1BD1A8
:10236C007B681B686FF010021A617B6808221A7771
:10237C007B681B68DB6903F44073002B03D078681F
:10238C0000F033F905E0786800F026F9786800F081
:10239C0035F97B6800221A777B681B681B6903F090
:1023AC000103012B0ED17B681B68DB6803F0010372
:1023BC00012B07D17B681B686FF001021A617868EA
:1023CC00FEF768FF7B681B681B6903F08003802B9A
:1023DC000ED17B681B68DB6803F08003802B07D170
:1023EC007B681B686FF080021A61786800F067FAEE
:1023FC007B681B681B6903F04003402B0ED17B6884
:10240C001B68DB6803F04003402B07D17B681B681B
:10241C006FF040021A61786800F0F9F87B681B686D
:10242C001B6903F02003202B0ED17B681B68DB6833
:10243C0003F02003202B07D17B681B686FF0200270
:10244C001A61786800F032FA00BF0837BD4680BDCB
:10245C0080B584B000AF786039607B6893F83C300D
:10246C00012B01D10223B3E07B68012283F83C20CD
:10247C007B68022283F83D207B681B689B68FB60AD
:10248C00FB6823F07703FB60FB6823F47F43FB605E
:10249C007B681B68FA689A603B681B68B3F5005F41
:1024AC003ED0B3F5005F00F28780B3F5805F00F09B
:1024BC008580B3F5805F7FD8702B1AD0702B7BD8BA
:1024CC00602B50D0602B77D8502B3CD0502B73D82E
:1024DC00402B58D0402B6FD8302B64D0302B6BD87E
:1024EC00202B60D0202B67D8002B5CD0102B5AD01F
:1024FC0062E07B6818683B6899683B685A683B687F
:10250C00DB6800F05CF97B681B689B68FB60FB6810
:10251C0043F07703FB607B681B68FA689A604EE0B7
:10252C007B6818683B6899683B685A683B68DB684D
:10253C0000F045F97B681B689A687B681B6842F45D
:10254C0080429A603BE07B6818683B6859683B683E
:10255C00DB681A4600F0BCF87B681B6850211846F3
:10256C0000F013F92BE07B6818683B6859683B68EE
:10257C00DB681A4600F0DAF87B681B6860211846A5
:10258C0000F003F91BE07B6818683B6859683B68EE
:10259C00DB681A4600F09CF87B681B6840211846E3
:1025AC0000F0F3F80BE07B681A683B681B6819466F
:1025BC00104600F0EAF802E000BF00E000BF7B68C4
:1025CC00012283F83D207B68002283F83C20002305
:1025DC0018461037BD4680BD80B483B000AF78601C
:1025EC0000BF0C37BD4680BC704780B483B000AFD1
:1025FC00786000BF0C37BD4680BC704780B483B098
:10260C0000AF786000BF0C37BD4680BC704780B40B
:10261C0083B000AF786000BF0C37BD4680BC7047FC
:10262C0080B485B000AF786039607B681B68FB6054
:10263C007B68254A934207D07B68B3F1804F03D067
:10264C007B68224A934208D1FB6823F07003FB603D
:10265C003B685B68FA681343FB607B681A4A9342D9
:10266C0007D07B68B3F1804F03D07B68174A934245
:10267C0008D1FB6823F44073FB603B68DB68FA68A5
:10268C001343FB60FB6823F080023B685B691343D8
:10269C00FB607B68FA681A603B689A687B68DA6250
:1026AC003B681A687B689A627B68074A934203D13D
:1026BC003B681A697B681A637B6801225A6100BF08
:1026CC001437BD4680BC7047002C0140000400400C
:1026DC0080B487B000AFF860B9607A60FB681B6AA1
:1026EC007B61FB681B6A23F00102FB681A62FB68C2
:1026FC009B693B613B6923F0F0033B617B681B01E9
:10270C003A6913433B617B6923F00A037B617A6965
:10271C00BB6813437B61FB683A699A61FB687A6911
:10272C001A6200BF1C37BD4680BC704780B487B0AE
:10273C0000AFF860B9607A60FB681B6A23F0100286
:10274C00FB681A62FB689B697B61FB681B6A3B61D7
:10275C007B6923F470437B617B681B037A691343A9
:10276C007B613B6923F0A0033B61BB681B013A69A9
:10277C0013433B61FB687A699A61FB683A691A6298
:10278C0000BF1C37BD4680BC704780B485B000AF1D
:10279C00786039607B689B68FB60FB6823F0700392
:1027AC00FB603A68FB68134343F00703FB607B68EC
:1027BC00FA689A6000BF1437BD4680BC704780B47D
:1027CC0087B000AFF860B9607A603B60FB689B68CB
:1027DC007B617B6923F47F437B613B681A027B68D6
:1027EC001A43BB6813437A6913437B61FB687A69AC
:1027FC009A6000BF1C37BD4680BC704780B485B062
:10280C0000AF786039607B6893F83C30012B01D1C4
:10281C00022341E07B68012283F83C207B68022282
:10282C0083F83D207B681B685B68FB607B681B68DA
:10283C009B68BB60FB6823F07003FB603B681B6804
:10284C00FA681343FB607B681B68FA685A607B6804
:10285C001B68144A934209D07B681B68B3F1804F04
:10286C0004D07B681B68104A93420CD1BB6823F0E0
:10287C008003BB603B685B68BA681343BB607B68D2
:10288C001B68BA689A607B68012283F83D207B68DC
:10289C00002283F83C20002318461437BD4680BC28
:1028AC00704700BF002C01400004004080B483B08E
:1028BC0000AF786000BF0C37BD4680BC704780B459
:1028CC0083B000AF786000BF0C37BD4680BC70474A
:1028DC0070B500260C4D0D4C641BA410A64209D1FA
:1028EC0000F022F800260A4D0A4C641BA410A642E4
:1028FC0005D170BD55F8043B98470136EEE755F805
:10290C00043B98470136F2E76C2900086C29000853
:10291C006C2900087029000803460244934200D138
:10292C00704703F8011BF9E7F8B500BFF8BC08BC09
:10293C009E467047F8B500BFF8BC08BC9E46704771
:10294C0002030405060708090A0B0C0D0E0F1010E4
:10295C000000000000000000010203040607080943
:04296C00310100082D
:042970000D0100084D
:102974000500000003000000020000000100000048
:102984000500000000000000080000000A0000002C
:0C2994000024F40010000000010000000E
:04000005080012C518
:00000001FF
