:020000040800F2
:100000000028002019150008851400088B1400082A
:1000100091140008971400089D14000800000000C7
:10002000000000000000000000000000A314000811
:10003000AF14000800000000BB140008C71400083B
:1000400061150008611500086115000861150008B8
:1000500061150008611500086115000861150008A8
:100060006115000861150008611500086115000898
:100070006115000861150008611500086115000888
:100080006115000861150008611500086115000878
:100090006115000861150008611500086115000868
:1000A0006115000861150008611500086115000858
:1000B000D514000861150008000000006115000853
:1000C0006115000800000000000000006115000834
:1000D0000000000061150008611500080000000024
:1000E0006115000861150008611500080000000096
:1000F0000000000000000000000000000000000000
:0C01000000000000000000005FF808F1A3
:10010C0010B5054C237833B9044B13B10448AFF345
:10011C0000800123237010BD34000020000000007B
:10012C00882B000808B5034B1BB103490348AFF3F8
:10013C00008008BD0000000038000020882B00085B
:10014C0080B500AF384B1B68032B63D801A252F863
:10015C0023F000BF7101000897010008C5010008D9
:10016C00F301000800F05CFE304B1B68304A136052
:10017C002D4B01221A602D4B1B68184600F060F8BD
:10018C000346184601F028F84BE000F05FFE294BBF
:10019C001B68012B40D1244B02221A60264B1B6892
:1001AC00234A1360244B1B68184600F049F8034699
:1001BC00184601F011F82FE000F05EFE1D4B1B6895
:1001CC00012B2BD1184B03221A601C4B1B68184AAD
:1001DC0013601A4B1B68184600F032F80346184699
:1001EC0000F0FAFF1AE000F05DFE124B1B68012BC9
:1001FC0016D10D4B01221A600C4B1B680C4A136074
:10020C000A4B1B68184600F01BF80346184600F012
:10021C00E3FF05E000BF04E000BF02E000BF00E028
:10022C0000BF00BF80BD00BF5400002000000020B4
:10023C000C00002098000020040000200800002082
:10024C0080B483B000AF78607B684FF47A7202FBA5
:10025C0003F318460C37BD4680BC704780B500AF21
:10026C00384B1B68032B63D801A252F823F000BF54
:10027C008D020008B3020008E10200080F03000819
:10028C0000F026FE304B1B68304A13602D4B0222C7
:10029C001A602D4B1B681846FFF7D2FF0346184611
:1002AC0000F0B4FF4BE000F029FE294B1B68012B3A
:1002BC0040D1244B02221A60234B1B68234A136043
:1002CC00214B1B681846FFF7BBFF0346184600F08E
:1002DC009DFF2FE000F028FE1D4B1B68012B2BD13E
:1002EC00184B03221A601B4B1B68184A1360194BDE
:1002FC001B681846FFF7A4FF0346184600F086FF5C
:10030C001AE000F027FE124B1B68012B16D10D4B87
:10031C0001221A60104B1B680C4A13600E4B1B68B1
:10032C001846FFF78DFF0346184600F06FFF05E0F7
:10033C0000BF04E000BF02E000BF00E000BF00BF50
:10034C0080BD00BF580000200400002010000020D9
:10035C009C000020080000200000002080B500AFA9
:10036C00374B1B680A2B5FD801A252F823F000BF51
:10037C00A9030008350400083504000835040008FA
:10038C00350400083504000835040008C3030008D0
:10039C00DB030008F30300080B040008284B0722BA
:1003AC001A60284B00221A60274B00221A60274B38
:1003BC0014221A6041E0264B1B68184600F020F905
:1003CC000346012B32D11E4B08221A602EE0204B23
:1003DC001B68184600F014F90346012B28D1184B62
:1003EC0009221A6024E01A4B1B68184600F008F921
:1003FC000346012B1ED1124B0A221A601AE0144B31
:10040C001B68184600F0FCF80346012B14D10C4B6A
:10041C0007221A600B4B00221A600B4B00221A6049
:10042C000A4B14221A6007E000BF06E000BF04E08C
:10043C0000BF02E000BF00E000BF00BF80BD00BFF6
:10044C005000002054000020580000205C000020C8
:10045C006400002080B500AF644B1B68172B00F2C2
:10046C00BA8001A252F823F0D5040008E305000875
:10047C00E3050008E3050008E3050008E3050008B0
:10048C00E3050008E3050008E3050008E3050008A0
:10049C00E3050008E3050008E3050008E305000890
:1004AC00E3050008E3050008E3050008E305000880
:1004BC00E3050008E30500080B05000839050008F2
:1004CC0067050008A5050008484B14221A60484B24
:1004DC001B68484A12681146184600F0EDFB00F004
:1004EC0027FC454B1B68184600F0ACFB424B1B68C5
:1004FC000133414A1360FA2000F0A2FE74E03F4B36
:10050C001B68012B69D1394B15221A6000F02EFCA7
:10051C00394B1B68184600F095FB374B1B680133B1
:10052C00354A1360FA2000F08BFE56E0334B1B6803
:10053C00012B54D12D4B16221A6000F035FC2E4B9A
:10054C001B68184600F07EFB2B4B1B6801332A4AB4
:10055C001360FA2000F074FE41E0284B1B68012B5D
:10056C003FD1224B17221A6000F03CFC224B1B6837
:10057C00184600F067FB204B00221A601C4B1B68CE
:10058C00013B1B4A13601B4B1B68013B194A136050
:10059C00FA2000F055FE24E0184B1B68012B22D1E9
:1005AC00134B1B68134A12681146184600F084FB63
:1005BC000E4B14221A6000F0BBFB0F4B1B68184645
:1005CC0000F040FB0C4B1B6801330B4A1360FA2004
:1005DC0000F036FE07E000BF06E000BF04E000BFFD
:1005EC0002E000BF00E000BF00BF80BD5C00002047
:1005FC000C0000201000002060000020A000002053
:10060C0080B483B000AF7860094A7B6813441B78D0
:10061C00012B06D1064A7B68134400221A70012371
:10062C0000E0002318460C37BD4680BC704700BF65
:10063C007C00002080B483B000AF0346FB71FB79D3
:10064C00022B01D9002307E0FB79064AD35C002B6F
:10065C000CBF01230023DBB218460C37BD4680BC0F
:10066C00704700BF6800002080B483B000AF034621
:10067C00FB71FB79022B01D9FF2307E0FB79064ABA
:10068C00D35C012B0CBF01230023DBB218460C37C3
:10069C00BD4680BC704700BF7800002080B582B09A
:1006AC0000AF0346FB71FB79514AD35C022B69D036
:1006BC00022B00F39980002B02D0012B1AD093E06F
:1006CC00FB791846FFF7B6FF0346002B00F0898034
:1006DC00FB79474A0121D154FB79464A002122F883
:1006EC001310FB79444A0021D154FB79434A012170
:1006FC00D15476E0FB791846FFF79CFF0346002B9C
:10070C000DD1FB793A4A0021D154FB793B4A0021A7
:10071C00D154FB79374A002122F8131063E0FB799E
:10072C00344A32F81330B3F5967F09D2FB79314A4B
:10073C0032F81320013291B22E4A22F8131011E034
:10074C00FB792D4A0121D154FB792C4A0121D1543A
:10075C00FB792B4A002122F81310FB79254A002142
:10076C0022F81310FB791846FFF77EFF0346002B87
:10077C0039D0FB791E4A0221D154FB791E4A002143
:10078C00D15430E0FB791846FFF754FF0346002B99
:10079C000DD1FB79164A0021D154FB79174A00215F
:1007AC00D154FB79164A002122F813101CE0FB7976
:1007BC00134A32F81330632B09D8FB79104A32F8FC
:1007CC001320013291B20E4A22F813100CE0FB797F
:1007DC000A4A0121D154FB79094A002122F813104D
:1007EC0002E000BF00E000BF00BF0837BD4680BD7F
:1007FC009000002080000020780000207C00002069
:10080C008800002090B583B000AF0023FB7154E04A
:10081C00FA79FB792D49895C2D4AD154FA79FB7907
:10082C002C49895C294AD154FB79022B1CD0022B10
:10083C0025DC002B02D0012B0BD020E0FC794FF4EF
:10084C000051254801F072F903461A46214B1A55FE
:10085C0016E0FC794FF480411F4801F067F903461C
:10086C001A461C4B1A550BE0FC794FF400411A4800
:10087C0001F05CF903461A46164B1A5500E000BF0E
:10088C00FB79144AD25CFB791049CB5C9A4211D1AA
:10089C00FB790E4AD25CFB790D49CB5C9A4209D1AB
:1008AC00FA79FB790A49895C0C4AD154FB791846D0
:1008BC00FFF7F4FEFB790133FB71FB79022BA7D90F
:1008CC0000BF00BF0C37BD4690BD00BF70000020BC
:1008DC00740000206C000020001001406800002013
:1008EC0080B582B000AF78607B68092B00F2808104
:1008FC0001A252F823F000BF2D0900087509000869
:10090C00BD090008050A00084D0A0008950A0008F0
:10091C00DD0A0008250B00086D0B0008B50B00085C
:10092C0000220121C64801F018F900220221C44816
:10093C0001F013F900220421C14801F00EF9002244
:10094C000821BF4801F009F900221021BC4801F030
:10095C0004F900222021BA4801F0FFF801224021BD
:10096C00B74801F0FAF867E101220121B44801F01F
:10097C00F4F800220221B24801F0EFF80022042121
:10098C00AF4801F0EAF801220821AD4801F0E5F882
:10099C0001221021AA4801F0E0F801222021A848E8
:1009AC0001F0DBF801224021A54801F0D6F843E123
:1009BC0000220121A24801F0D0F800220221A04817
:1009CC0001F0CBF8012204219D4801F0C6F8002269
:1009DC0008219B4801F0C1F800221021984801F031
:1009EC00BCF801222021964801F0B7F800224021E2
:1009FC00934801F0B2F81FE100220121904801F068
:100A0C00ACF8002202218E4801F0A7F80022042144
:100A1C008B4801F0A2F800220821894801F09DF8CA
:100A2C0001221021864801F098F8012220218448E7
:100A3C0001F093F800224021814801F08EF8FBE090
:100A4C00012201217E4801F088F8002202217C4815
:100A5C0001F083F800220421794801F07EF801228C
:100A6C000821774801F079F801221021744801F02F
:100A7C0074F800222021724801F06FF80022402106
:100A8C006F4801F06AF8D7E0002201216C4801F0B0
:100A9C0064F8012202216A4801F05FF80022042167
:100AAC00674801F05AF800220821654801F055F812
:100ABC0001221021624801F050F8002220216048E8
:100ACC0001F04BF8002240215D4801F046F8B3E0FC
:100ADC00002201215A4801F040F801220221584815
:100AEC0001F03BF800220421554801F036F80022B1
:100AFC000821534801F031F800221021504801F030
:100B0C002CF8002220214E4801F027F80022402129
:100B1C004B4801F022F88FE000220121484801F0F7
:100B2C001CF800220221464801F017F8002204218B
:100B3C00434801F012F801220821414801F00DF858
:100B4C00012210213E4801F008F8012220213C48E6
:100B5C0001F003F801224021394800F0FEFF6BE060
:100B6C0000220121364800F0F8FF0022022134480F
:100B7C0000F0F3FF00220421314800F0EEFF0022C8
:100B8C0008212F4800F0E9FF002210212C4800F02A
:100B9C00E4FF002220212A4800F0DFFF0022402140
:100BAC00274800F0DAFF47E000220121244800F03A
:100BBC00D4FF00220221224800F0CFFF00220421A2
:100BCC001F4800F0CAFF002208211D4800F0C5FF95
:100BDC00012210211A4800F0C0FF002220211848E1
:100BEC0000F0BBFF00224021154800F0B6FF23E0C7
:100BFC0001220121124800F0B0FF0122022110480D
:100C0C0000F0ABFF012204210D4800F0A6FF0122E9
:100C1C0008210B4800F0A1FF01221021084800F028
:100C2C009CFF01222021064800F097FF0122402161
:100C3C00034800F092FF00BF00BF0837BD4680BDDF
:100C4C00000C014080B582B000AF78607B68032B4C
:100C5C002AD801A252F823F0750C0008850C000864
:100C6C00950C0008A50C0008124A7B6852F823303A
:100C7C001846FFF735FE18E00E4A7B6852F8233011
:100C8C001846FFF72DFE10E00A4A7B6852F8233015
:100C9C001846FFF725FE08E0064A7B6852F8233019
:100CAC001846FFF71DFE00E000BF00BF0837BD4629
:100CBC0080BD00BF1400002080B483B000AF78600A
:100CCC0039607B68184A82FB03129210DB17D31A27
:100CDC00164A13607968144B83FB01239A10CB17C7
:100CEC00D21A13469B0013445B00CA1A0F4B5A606E
:100CFC003B680D4A82FB03129210DB17D31A0B4A86
:100D0C0093603968084B83FB01239A10CB17D21AD6
:100D1C0013469B0013445B00CA1A044BDA6000BFF5
:100D2C000C37BD4680BC70476766666614000020B1
:100D3C0080B500AF00224FF480710B4800F00DFF1E
:100D4C0001224FF40071084800F007FF01224FF414
:100D5C008061054800F001FF01224FF40061024858
:100D6C0000F0FBFE00BF80BD0008014080B500AF65
:100D7C0001224FF480710B4800F0EFFE00224FF47B
:100D8C000071084800F0E9FE01224FF4806105482B
:100D9C0000F0E3FE01224FF40061024800F0DDFE9A
:100DAC0000BF80BD0008014080B500AF01224FF4A8
:100DBC0080710B4800F0D1FE01224FF400710848FD
:100DCC0000F0CBFE00224FF48061054800F0C5FE18
:100DDC0001224FF40061024800F0BFFE00BF80BD4D
:100DEC000008014080B500AF01224FF480710B4820
:100DFC0000F0B3FE01224FF40071084800F0ADFE84
:100E0C0001224FF48061054800F0A7FE00224FF448
:100E1C000061024800F0A1FE00BF80BD0008014047
:100E2C0080B500AF01220421074800F096FE012294
:100E3C001021054800F091FE01220821024800F023
:100E4C008CFE00BF80BD00BF0008014080B500AF24
:100E5C0000220421074800F080FE012210210548E1
:100E6C0000F07BFE01220821024800F076FE00BF54
:100E7C0080BD00BF0008014080B500AF01220421F5
:100E8C00074800F06AFE00221021054800F065FEBC
:100E9C0001220821024800F060FE00BF80BD00BFA7
:100EAC000008014080B500AF01220421074800F082
:100EBC0054FE01221021054800F04FFE00220821AB
:100ECC00024800F04AFE00BF80BD00BF0008014090
:100EDC0080B500AF01222021074800F03EFE012220
:100EEC008021054800F039FE01224021024800F023
:100EFC0034FE00BF80BD00BF0008014080B500AFCC
:100F0C0000222021074800F028FE012280210548FC
:100F1C0000F023FE01224021024800F01EFE00BF1B
:100F2C0080BD00BF0008014080B500AF0122202128
:100F3C00074800F012FE00228021054800F00DFE4B
:100F4C0001224021024800F008FE00BF80BD00BF16
:100F5C000008014080B500AF01222021074800F0B5
:100F6C00FCFD01228021054800F0F7FD0022402104
:100F7C00024800F0F2FD00BF80BD00BF0008014038
:100F8C0080B500AF00F0E8FA00F028F800F0AEF8F9
:100F9C0000F060F80F4801F031FA0F4B00221A6094
:100FAC004FF47A7000F018F94FF47A7000F02EF9C3
:100FBC004FF47A7000F044F94FF47A7000F05AF95B
:100FCC00FFF7CCF9FFF7BCF8FFF748F9FFF742FA47
:100FDC00F6E700BFCC0000205000002080B590B098
:100FEC0000AF07F1180328220021184601F0BEFDBE
:100FFC003B1D00221A605A609A60DA601A61022363
:10100C00BB610123BB621023FB6200237B6307F1EE
:10101C001803184600F0BAFD0346002B01D000F06F
:10102C00D5F80F237B600023BB600023FB600023FB
:10103C003B6100237B613B1D0021184601F026F823
:10104C000346002B01D000F0C1F800BF4037BD466D
:10105C0080BD000080B586B000AF07F10803002208
:10106C001A605A609A60DA603B4600221A605A6035
:10107C001D4B4FF080421A601B4B41F63F725A6079
:10108C00194B00229A60184B0922DA60164B002289
:10109C001A61154B00229A61134801F05FF903465F
:1010AC00002B01D000F092F84FF48053BB6007F195
:1010BC00080319460C4801F0F5FA0346002B01D041
:1010CC0000F084F800233B6000237B603B4619460C
:1010DC00054801F0BDFC0346002B01D000F076F86A
:1010EC0000BF1837BD4680BDCC00002080B588B04D
:1010FC0000AF07F1100300221A605A609A60DA60A0
:10110C002E4B9B692D4A43F0100393612B4B9B692B
:10111C0003F01003FB60FB68284B9B69274A43F0E4
:10112C0004039361254B9B6903F00403BB60BB680C
:10113C00224B9B69214A43F0080393611F4B9B6927
:10114C0003F008037B607B68002240F6FE711C48AC
:10115C0000F003FD00227F211A4800F0FEFC4FF442
:10116C0060433B6100237B610123BB6107F11003EA
:10117C001946154800F060FB40F6FE733B610123F5
:10118C007B610023BB610223FB6107F1100319464D
:10119C000B4800F051FB7F233B6101237B61002353
:1011AC00BB610223FB6107F110031946054800F0EF
:1011BC0043FB00BF2037BD4680BD00BF001002407E
:1011CC0000080140000C01400010014080B400AF49
:1011DC0072B600BFFEE7000080B483B000AF786049
:1011EC00074B1B687A6892FBF3F3064A1360064BB5
:1011FC0000221A6000BF0C37BD4680BC704700BF90
:10120C0024000020B40000209800002080B483B09B
:10121C0000AF7860074B1B687A6892FBF3F3064AC1
:10122C001360064B00221A6000BF0C37BD4680BC11
:10123C00704700BF24000020B80000209C00002054
:10124C0080B483B000AF7860074B1B687A6892FB60
:10125C00F3F3064A1360064B00221A6000BF0C37EA
:10126C00BD4680BC704700BF24000020BC0000209D
:10127C00A000002080B483B000AF7860074B1B68DF
:10128C007A6892FBF3F3064A1360064B00221A604D
:10129C0000BF0C37BD4680BC704700BF2400002047
:1012AC00C0000020A400002080B400AF394B1B68A4
:1012BC00002B0BDD374B1B68013B364A1360354B5B
:1012CC001B68002B02DC344B01221A60334B1B6869
:1012DC00002B0BDD314B1B68013B304A13602F4B4D
:1012EC001B68002B02DC2E4B01221A602D4B1B6855
:1012FC00002B0BDD2B4B1B68013B2A4A1360294B3F
:10130C001B68002B02DC284B01221A60274B1B6840
:10131C00002B0BDD254B1B68013B244A1360234B30
:10132C001B68002B02DC224B01221A60214B1B682C
:10133C00002B0BDD1F4B1B68013B1E4A13601D4B22
:10134C001B68002B02DC1C4B01221A601B4B1B6818
:10135C00002B0BDD194B1B68013B184A1360174B14
:10136C001B68002B02DC164B01221A60154B1B6804
:10137C00002B0BDD134B1B68013B124A1360114B06
:10138C001B68002B02DC104B01221A6000BFBD460B
:10139C0080BC7047B000002094000020B4000020F6
:1013AC0098000020B80000209C000020BC00002009
:1013BC00A0000020C0000020A4000020C4000020D9
:1013CC00A8000020C8000020AC00002080B485B02C
:1013DC0000AF154B9B69144A43F001039361124B08
:1013EC009B6903F00103BB60BB680F4BDB690E4AC2
:1013FC0043F08053D3610C4BDB6903F080537B606B
:10140C007B680A4B5B68FB60FB6823F0E063FB6066
:10141C00FB6843F08063FB60044AFB68536000BFC9
:10142C001437BD4680BC70470010024000000140DC
:10143C0080B584B000AF78607B681B68B3F1804FD7
:10144C0013D10C4BDB690B4A43F00103D361094BFD
:10145C00DB6903F00103FB60FB68002200211C2008
:10146C0000F0B3F91C2000F0CCF900BF1037BD46DA
:10147C0080BD00BF0010024080B400AFFEE780B416
:10148C0000AFFEE780B400AFFEE780B400AFFEE72C
:10149C0080B400AFFEE780B400AF00BFBD4680BC97
:1014AC00704780B400AF00BFBD4680BC704780B4AD
:1014BC0000AF00BFBD4680BC704780B500AF00F0E8
:1014CC0091F800BF80BD000080B500AF024800F06D
:1014DC00E1FF00BF80BD00BFCC00002080B400AF96
:1014EC0000BFBD4680BC704780B582B000AF78604D
:1014FC007B681B68B3F1804F03D1FFF783F9FFF7CB
:10150C00D3FE00BF0837BD4680BD00000C480D4916
:10151C000D4A002302E0D458C4500433C4188C4242
:10152C00F9D30A4A0A4C002301E013600432A242A8
:10153C00FBD3FFF7D3FF01F0F5FAFFF721FD70475E
:10154C000000002034000020C82B000834000020CC
:10155C0018010020FEE7000080B500AF084B1B68A7
:10156C00074A43F010031360032000F023F90F2007
:10157C0000F008F8FFF72AFF0023184680BD00BFD3
:10158C000020024080B582B000AF7860124B1A6820
:10159C00124B1B7819464FF47A73B3FBF1F3B2FB81
:1015AC00F3F3184600F03BF90346002B01D001235E
:1015BC000EE07B680F2B0AD8002279684FF0FF30C1
:1015CC0000F003F9064A7B681360002300E0012356
:1015DC0018460837BD4680BD28000020300000208A
:1015EC002C00002080B400AF054B1B781A46054B2D
:1015FC001B681344034A136000BFBD4680BC704790
:10160C00300000201401002080B400AF024B1B6896
:10161C001846BD4680BC70471401002080B485B0CC
:10162C0000AF78607B6803F00703FB600C4BDB6852
:10163C00BB60BA684FF6FF031340BB60FB681A022D
:10164C00BB68134343F0BF6343F40033BB60044AED
:10165C00BB68D36000BF1437BD4680BC704700BF69
:10166C0000ED00E080B400AF044BDB681B0A03F014
:10167C0007031846BD4680BC704700BF00ED00E074
:10168C0080B483B000AF0346FB7197F90730002B91
:10169C000BDBFB7903F01F02064997F907305B0956
:1016AC00012000FA02F241F8232000BF0C37BD469E
:1016BC0080BC704700E100E080B483B000AF03460B
:1016CC003960FB7197F90730002B0ADB3B68DAB203
:1016DC000C4997F907301201D2B20B4483F800235E
:1016EC000AE03B68DAB20849FB7903F00F03043BCC
:1016FC001201D2B20B441A7600BF0C37BD4680BC27
:10170C00704700BF00E100E000ED00E080B489B05C
:10171C0000AFF860B9607A60FB6803F00703FB6107
:10172C00FB69C3F10703042B28BF0423BB61FB69CE
:10173C000433062B02D9FB69033B00E000237B61D9
:10174C004FF0FF32BB6902FA03F3DA43BB681A406D
:10175C007B699A404FF0FF317B6901FA03F3D9435F
:10176C007B680B40134318462437BD4680BC70473A
:10177C0080B582B000AF78607B68013BB3F1807FAD
:10178C0001D301230FE00A4A7B68013B53600F2110
:10179C004FF0FF30FFF790FF054B00229A60044B8F
:1017AC0007221A60002318460837BD4680BD00BFCB
:1017BC0010E000E080B582B000AF78607868FFF789
:1017CC002DFF00BF0837BD4680BD80B586B000AF89
:1017DC000346B9607A60FB7300237B61FFF742FF1D
:1017EC0078617A68B9687869FFF790FF024697F9D3
:1017FC000F3011461846FFF75FFF00BF1837BD4684
:10180C0080BD80B582B000AF0346FB7197F90730FD
:10181C001846FFF735FF00BF0837BD4680BD80B5C1
:10182C0082B000AF78607868FFF7A2FF03461846D5
:10183C000837BD4680BD000080B48BB000AF786027
:10184C00396000237B6200233B6248E101227B6A02
:10185C0002FA03F3FB613B681B68FA691340BB6136
:10186C00BA69FB699A4240F037813B685B68A34ACE
:10187C0093425ED0A14A934275D8A14A934258D064
:10188C009F4A93426FD89F4A934252D09D4A9342AB
:10189C0069D89D4A93424CD09B4A934263D89B4A49
:1018AC00934246D0994A93425DD8122B2AD8122BD8
:1018BC0059D801A252F823F03F1900081919000851
:1018CC002B1900086D19000873190008731900080A
:1018DC0073190008731900087319000873190008AC
:1018EC00731900087319000873190008731900089C
:1018FC0073190008731900087319000821190008DE
:10190C0035190008824A934213D02CE03B68DB68FF
:10191C003B6229E03B68DB6804333B6224E03B68B4
:10192C00DB6808333B621FE03B68DB680C333B62CF
:10193C001AE03B689B68002B02D104233B6213E046
:10194C003B689B68012B05D108233B627B68FA69D5
:10195C001A6109E008233B627B68FA695A6103E06B
:10196C0000233B6200E000BFBB69FF2B01D87B6802
:10197C0001E07B6804337B61BB69FF2B02D87B6A77
:10198C009B0002E07B6A083B9B003B617B691A6809
:10199C000F213B6901FA03F3DB431A40396A3B69B7
:1019AC0001FA03F31A437B691A603B685B6803F026
:1019BC008053002B00F09080564B9B69554A43F0A6
:1019CC0001039361534B9B6903F00103BB60BB683C
:1019DC00514A7B6A9B08023352F82330FB607B6AC6
:1019EC0003F003039B000F2202FA03F3DB43FA68B4
:1019FC001340FB607B68494A93420DD07B68484A90
:101A0C00934207D07B68474A934201D1022304E0FA
:101A1C00032302E0012300E000237A6A02F00302B0
:101A2C0092009340FA681343FB603B497B6A9B0826
:101A3C000233FA6841F823203B685B6803F4803377
:101A4C00002B06D0384B1A683749BB6913430B601F
:101A5C0006E0354B1A68BB69DB43334913400B6016
:101A6C003B685B6803F40033002B06D02E4B5A689E
:101A7C002D49BB6913434B6006E02B4B5A68BB697D
:101A8C00DB43294913404B603B685B6803F48013CC
:101A9C00002B06D0244B9A682349BB6913438B60F7
:101AAC0006E0214B9A68BB69DB431F4913408B60EE
:101ABC003B685B6803F40013002B06D01A4BDA6802
:101ACC001949BB691343CB6006E0174BDA68BB6955
:101ADC00DB4315491340CB607B6A01337B623B6867
:101AEC001A687B6A22FA03F3002B7FF4AFAE00BFB7
:101AFC0000BF2C37BD4680BC704700BF00003210C1
:101B0C000000311000002210000021100000121003
:101B1C0000001110001002400000014000080140BC
:101B2C00000C0140001001400004014080B485B05D
:101B3C0000AF78600B467B807B689A687B8813408B
:101B4C00002B02D00123FB7301E00023FB73FB7B12
:101B5C0018461437BD4680BC704780B483B000AFC4
:101B6C0078600B467B8013467B707B78002B03D010
:101B7C007A887B681A6103E07B881A047B681A6197
:101B8C0000BF0C37BD4680BC7047000080B586B0E6
:101B9C0000AF78607B68002B01D101236CE27B687D
:101BAC001B6803F00103002B00F08780924B5B68ED
:101BBC0003F00C03042B0CD08F4B5B6803F00C036D
:101BCC00082B12D18C4B5B6803F48033B3F5803F48
:101BDC000BD1894B1B6803F40033002B6CD07B6852
:101BEC005B68002B68D1012346E27B685B68B3F528
:101BFC00803F06D1804B1B687F4A43F480331360CF
:101C0C002EE07B685B68002B0CD17B4B1B687A4AFF
:101C1C0023F480331360784B1B68774A23F48023BA
:101C2C0013601DE07B685B68B3F5A02F0CD1724B81
:101C3C001B68714A43F4802313606F4B1B686E4A18
:101C4C0043F4803313600BE06B4B1B686A4A23F43C
:101C5C0080331360684B1B68674A23F4802313603E
:101C6C007B685B68002B13D0FFF7CEFC386108E073
:101C7C00FFF7CAFC02463B69D31A642B01D9032334
:101C8C00FAE15D4B1B6803F40033002BF0D014E039
:101C9C00FFF7BAFC386108E0FFF7B6FC02463B6977
:101CAC00D31A642B01D90323E6E1534B1B6803F4CD
:101CBC000033002BF0D100E000BF7B681B6803F001
:101CCC000203002B63D04C4B5B6803F00C03002B1E
:101CDC000BD0494B5B6803F00C03082B1CD1464B13
:101CEC005B6803F48033002B16D1434B1B6803F065
:101CFC000203002B05D07B681B69012B01D001234B
:101D0C00BAE13D4B1B6823F0F8027B685B69DB0092
:101D1C00394913430B603AE07B681B69002B20D0D8
:101D2C00364B01221A60FFF76FFC386108E0FFF7B1
:101D3C006BFC02463B69D31A022B01D903239BE1AE
:101D4C002D4B1B6803F00203002BF0D02A4B1B68B1
:101D5C0023F0F8027B685B69DB00274913430B60B7
:101D6C0015E0264B00221A60FFF74EFC386108E0A4
:101D7C00FFF74AFC02463B69D31A022B01D9032315
:101D8C007AE11D4B1B6803F00203002BF0D17B683A
:101D9C001B6803F00803002B3AD07B689B69002B6F
:101DAC0019D0174B01221A60FFF72EFC386108E09E
:101DBC00FFF72AFC02463B69D31A022B01D90323F5
:101DCC005AE10D4B5B6A03F00203002BF0D00120AB
:101DDC0000F0A6FA1CE00A4B00221A60FFF714FC74
:101DEC0038610FE0FFF710FC02463B69D31A022B57
:101DFC0008D9032340E100BF00100240000042421A
:101E0C00800442429E4B5B6A03F00203002BE9D133
:101E1C007B681B6803F00403002B00F0A6800023F2
:101E2C00FB75974BDB6903F08053002B0DD1944B62
:101E3C00DB69934A43F08053D361914BDB6903F028
:101E4C008053BB60BB680123FB758E4B1B6803F48E
:101E5C008073002B18D18B4B1B688A4A43F4807318
:101E6C001360FFF7D1FB386108E0FFF7CDFB0246AA
:101E7C003B69D31A642B01D90323FDE0814B1B680A
:101E8C0003F48073002BF0D07B68DB68012B06D148
:101E9C007B4B1B6A7A4A43F0010313622DE07B688B
:101EAC00DB68002B0CD1764B1B6A754A23F00103BF
:101EBC001362734B1B6A724A23F0040313621CE017
:101ECC007B68DB68052B0CD16D4B1B6A6C4A43F0AD
:101EDC00040313626A4B1B6A694A43F001031362E1
:101EEC000BE0674B1B6A664A23F001031362644BD9
:101EFC001B6A634A23F0040313627B68DB68002BC4
:101F0C0015D0FFF781FB38610AE0FFF77DFB024635
:101F1C003B69D31A41F28832934201D90323ABE0D7
:101F2C00574B1B6A03F00203002BEED014E0FFF7B3
:101F3C006BFB38610AE0FFF767FB02463B69D31A7B
:101F4C0041F28832934201D9032395E04C4B1B6A32
:101F5C0003F00203002BEED1FB7D012B05D1484B86
:101F6C00DB69474A23F08053D3617B68DB69002B24
:101F7C0000F08180424B5B6803F00C03082B61D0AE
:101F8C007B68DB69022B46D13F4B00221A60FFF7BE
:101F9C003BFB386108E0FFF737FB02463B69D31A7D
:101FAC00022B01D9032367E0354B1B6803F0007348
:101FBC00002BF0D17B681B6AB3F5803F08D1304B06
:101FCC005B6823F400327B689B682D4913434B609C
:101FDC002B4B5B6823F474127B68196A7B685B6A11
:101FEC000B43274913434B60274B01221A60FFF721
:101FFC000BFB386108E0FFF707FB02463B69D31A7D
:10200C00022B01D9032337E01D4B1B6803F000732F
:10201C00002BF0D02FE01C4B00221A60FFF7F4FAD3
:10202C00386108E0FFF7F0FA02463B69D31A022B3D
:10203C0001D9032320E0124B1B6803F00073002B23
:10204C00F0D118E07B68DB69012B01D1012313E08F
:10205C000B4B5B68FB60FB6803F480327B681B6A8C
:10206C009A4206D1FB6803F470127B685B6A9A4251
:10207C0001D0012300E0002318461837BD4680BD6F
:10208C0000100240007000406000424280B584B0F5
:10209C0000AF786039607B68002B01D10123D0E060
:1020AC006A4B1B6803F007033A689A4210D9674BD6
:1020BC001B6823F0070265493B6813430B60634BB5
:1020CC001B6803F007033A689A4201D00123B8E079
:1020DC007B681B6803F00203002B20D07B681B6815
:1020EC0003F00403002B05D0594B5B68584A43F4AA
:1020FC00E06353607B681B6803F00803002B05D07A
:10210C00534B5B68524A43F460535360504B5B68CB
:10211C0023F0F0027B689B684D4913434B607B684E
:10212C001B6803F00103002B40D07B685B68012B1C
:10213C0007D1474B1B6803F40033002B15D1012347
:10214C007FE07B685B68022B07D1414B1B6803F077
:10215C000073002B09D1012373E03D4B1B6803F086
:10216C000203002B01D101236BE0394B5B6823F098
:10217C0003027B685B68364913434B60FFF744FAF4
:10218C00F8600AE0FFF740FA0246FB68D31A41F206
:10219C008832934201D9032353E02D4B5B6803F043
:1021AC000C027B685B689B009A42EBD1274B1B6847
:1021BC0003F007033A689A4210D2244B1B6823F0B1
:1021CC00070222493B6813430B60204B1B6803F04A
:1021DC0007033A689A4201D0012332E07B681B68FE
:1021EC0003F00403002B08D0194B5B6823F4E06266
:1021FC007B68DB68164913434B607B681B6803F0F4
:10220C000803002B09D0124B5B6823F460527B68E7
:10221C001B69DB000E4913434B6000F021F80246AA
:10222C000B4B5B681B0903F00F030A49CB5C22FACA
:10223C0003F3094A1360094B1B681846FFF7A2F910
:10224C00002318461037BD4680BD00BF0020024059
:10225C0000100240B02B0008280000202C000020A9
:10226C0090B48AB000AF2A4B3C1D0FCB84E80F0012
:10227C0040F201233B800023FB610023BB61002360
:10228C007B6200237B6100233B62224B5B68FB611A
:10229C00FB6903F00C03042B02D0082B03D02DE0B8
:1022AC001D4B3B622DE0FB699B0C03F00F0307F108
:1022BC002802134413F8243C7B61FB6903F480333C
:1022CC00002B13D0134B5B685B0C03F0010307F17D
:1022DC002802134413F8283CBB617B690E4A02FBAD
:1022EC0003F2BB69B2FBF3F37B6204E07B690B4A3C
:1022FC0002FB03F37B627B6A3B6202E0064B3B62B0
:10230C0000BF3B6A18462837BD4690BC704700BFDB
:10231C00A02B00080010024000127A0000093D00BA
:10232C0080B485B000AF78600A4B1B680A4AA2FBE8
:10233C0003235B0A7A6802FB03F3FB6000BFFB68B4
:10234C005A1EFA60002BF9D100BF00BF1437BD46EE
:10235C0080BC704728000020D34D621080B582B03D
:10236C0000AF78607B68002B01D1012341E07B68D2
:10237C0093F83D30DBB2002B06D17B68002283F84A
:10238C003C207868FFF754F87B68022283F83D20E4
:10239C007B681A687B6804331946104600F06AFAA9
:1023AC007B68012283F846207B68012283F83E205B
:1023BC007B68012283F83F207B68012283F8402050
:1023CC007B68012283F841207B68012283F842203C
:1023DC007B68012283F843207B68012283F8442028
:1023EC007B68012283F845207B68012283F83D201D
:1023FC00002318460837BD4680BD000080B485B068
:10240C0000AF78607B6893F83D30DBB2012B01D0D4
:10241C00012335E07B68022283F83D207B681B6832
:10242C00DA687B681B6842F00102DA607B681B6823
:10243C00164A934209D07B681B68B3F1804F04D0D5
:10244C007B681B68124A934211D17B681B689B689E
:10245C0003F00703FB60FB68062B10D07B681B683E
:10246C001A687B681B6842F001021A6007E07B68FF
:10247C001B681A687B681B6842F001021A60002313
:10248C0018461437BD4680BC704700BF002C014075
:10249C000004004080B582B000AF78607B681B6898
:1024AC001B6903F00203022B22D17B681B68DB68DB
:1024BC0003F00203022B1BD17B681B686FF0020236
:1024CC001A617B6801221A777B681B689B6903F091
:1024DC000303002B03D0786800F0B1F905E07868AD
:1024EC0000F0A4F9786800F0B3F97B6800221A7741
:1024FC007B681B681B6903F00403042B22D17B68E7
:10250C001B68DB6803F00403042B1BD17B681B687E
:10251C006FF004021A617B6802221A777B681B68D1
:10252C009B6903F44073002B03D0786800F087F9A3
:10253C0005E0786800F07AF9786800F089F97B6832
:10254C0000221A777B681B681B6903F00803082BB1
:10255C0022D17B681B68DB6803F00803082B1BD1B6
:10256C007B681B686FF008021A617B6804221A777B
:10257C007B681B68DB6903F00303002B03D07868CE
:10258C0000F05DF905E0786800F050F9786800F02B
:10259C005FF97B6800221A777B681B681B6903F064
:1025AC001003102B22D17B681B68DB6803F010032F
:1025BC00102B1BD17B681B686FF010021A617B68B3
:1025CC0008221A777B681B68DB6903F44073002BC5
:1025DC0003D0786800F033F905E0786800F026F94C
:1025EC00786800F035F97B6800221A777B681B68E5
:1025FC001B6903F00103012B0ED17B681B68DB68A0
:10260C0003F00103012B07D17B681B686FF00102FB
:10261C001A617868FEF768FF7B681B681B6903F01A
:10262C008003802B0ED17B681B68DB6803F0800372
:10263C00802B07D17B681B686FF080021A61786869
:10264C0000F067FA7B681B681B6903F04003402BA2
:10265C000ED17B681B68DB6803F04003402B07D16D
:10266C007B681B686FF040021A61786800F0F9F81B
:10267C007B681B681B6903F02003202B0ED17B6841
:10268C001B68DB6803F02003202B07D17B681B68D9
:10269C006FF020021A61786800F032FA00BF083738
:1026AC00BD4680BD80B584B000AF786039607B6872
:1026BC0093F83C30012B01D10223B3E07B6801225B
:1026CC0083F83C207B68022283F83D207B681B68E2
:1026DC009B68FB60FB6823F07703FB60FB6823F4CB
:1026EC007F43FB607B681B68FA689A603B681B68D9
:1026FC00B3F5005F3ED0B3F5005F00F28780B3F511
:10270C00805F00F08580B3F5805F7FD8702B1AD086
:10271C00702B7BD8602B50D0602B77D8502B3CD0B3
:10272C00502B73D8402B58D0402B6FD8302B64D003
:10273C00302B6BD8202B60D0202B67D8002B5CD093
:10274C00102B5AD062E07B6818683B6899683B682C
:10275C005A683B68DB6800F05CF97B681B689B6817
:10276C00FB60FB6843F07703FB607B681B68FA68CF
:10277C009A604EE07B6818683B6899683B685A68B9
:10278C003B68DB6800F045F97B681B689A687B68DE
:10279C001B6842F480429A603BE07B6818683B6897
:1027AC0059683B68DB681A4600F0BCF87B681B680C
:1027BC005021184600F013F92BE07B6818683B6831
:1027CC0059683B68DB681A4600F0DAF87B681B68CE
:1027DC006021184600F003F91BE07B6818683B6821
:1027EC0059683B68DB681A4600F09CF87B681B68EC
:1027FC004021184600F0F3F80BE07B681A683B6840
:10280C001B681946104600F0EAF802E000BF00E031
:10281C0000BF7B68012283F83D207B68002283F88F
:10282C003C20002318461037BD4680BD80B483B0D1
:10283C0000AF786000BF0C37BD4680BC704780B4D9
:10284C0083B000AF786000BF0C37BD4680BC7047CA
:10285C0080B483B000AF786000BF0C37BD4680BC3D
:10286C00704780B483B000AF786000BF0C37BD46B2
:10287C0080BC704780B485B000AF786039607B68ED
:10288C001B68FB607B68254A934207D07B68B3F1D9
:10289C00804F03D07B68224A934208D1FB6823F017
:1028AC007003FB603B685B68FA681343FB607B68F2
:1028BC001A4A934207D07B68B3F1804F03D07B68F0
:1028CC00174A934208D1FB6823F44073FB603B68C2
:1028DC00DB68FA681343FB60FB6823F080023B68FB
:1028EC005B691343FB607B68FA681A603B689A6803
:1028FC007B68DA623B681A687B689A627B68074A75
:10290C00934203D13B681A697B681A637B68012286
:10291C005A6100BF1437BD4680BC7047002C014083
:10292C000004004080B487B000AFF860B9607A60F2
:10293C00FB681B6A7B61FB681B6A23F00102FB6866
:10294C001A62FB689B693B613B6923F0F0033B61B6
:10295C007B681B013A6913433B617B6923F00A03D3
:10296C007B617A69BB6813437B61FB683A699A6146
:10297C00FB687A691A6200BF1C37BD4680BC704781
:10298C0080B487B000AFF860B9607A60FB681B6AEE
:10299C0023F01002FB681A62FB689B697B61FB6881
:1029AC001B6A3B617B6923F470437B617B681B036F
:1029BC007A6913437B613B6923F0A0033B61BB68DD
:1029CC001B013A6913433B61FB687A699A61FB68A6
:1029DC003A691A6200BF1C37BD4680BC704780B490
:1029EC0085B000AF786039607B689B68FB60FB68E2
:1029FC0023F07003FB603A68FB68134343F0070352
:102A0C00FB607B68FA689A6000BF1437BD4680BCD7
:102A1C00704780B487B000AFF860B9607A603B60F3
:102A2C00FB689B687B617B6923F47F437B613B681C
:102A3C001A027B681A43BB6813437A6913437B61A0
:102A4C00FB687A699A6000BF1C37BD4680BC704732
:102A5C0080B485B000AF786039607B6893F83C3007
:102A6C00012B01D1022341E07B68012283F83C2039
:102A7C007B68022283F83D207B681B685B68FB60E7
:102A8C007B681B689B68BB60FB6823F07003FB6072
:102A9C003B681B68FA681343FB607B681B68FA6829
:102AAC005A607B681B68144A934209D07B681B6888
:102ABC00B3F1804F04D07B681B68104A93420CD151
:102ACC00BB6823F08003BB603B685B68BA68134348
:102ADC00BB607B681B68BA689A607B68012283F8CC
:102AEC003D207B68002283F83C20002318461437D5
:102AFC00BD4680BC704700BF002C01400004004064
:102B0C0080B483B000AF786000BF0C37BD4680BC8A
:102B1C00704780B483B000AF786000BF0C37BD46FF
:102B2C0080BC704770B500260C4D0D4C641BA41076
:102B3C00A64209D100F022F800260A4D0A4C641B6B
:102B4C00A410A64205D170BD55F8043B9847013638
:102B5C00EEE755F8043B98470136F2E7C02B000826
:102B6C00C02B0008C02B0008C42B000803460244ED
:102B7C00934200D1704703F8011BF9E7F8B500BF89
:102B8C00F8BC08BC9E467047F8B500BFF8BC08BC42
:042B9C009E4670479A
:102BA00002030405060708090A0B0C0D0E0F10108E
:102BB00000000000000000000102030406070809ED
:042BC00031010008D7
:042BC4000D010008F7
:102BC80005000000030000000200000005000000EE
:102BD80003000000010000000500000000000000E4
:102BE800080000000A0000000024F40010000000A3
:042BF80001000000D8
:0400000508001519C1
:00000001FF
