:020000040800F2
:10000000002800205D190008C9180008CF18000852
:10001000D5180008DB180008E118000800000000EF
:10002000000000000000000000000000E7180008C9
:10003000F318000800000000FF1800080B19000862
:10004000A5190008A5190008A5190008A519000898
:10005000A5190008A5190008A5190008A519000888
:10006000A5190008A5190008A5190008A519000878
:10007000A5190008A5190008A5190008A519000868
:10008000A5190008A5190008A5190008A519000858
:10009000A5190008A5190008A5190008A519000848
:1000A000A5190008A5190008A5190008A519000838
:1000B00019190008A519000800000000A51900087A
:1000C000A51900080000000000000000A5190008A4
:1000D00000000000A5190008A51900080000000094
:1000E000A5190008A5190008A519000800000000BE
:1000F0000000000000000000000000000000000000
:0C01000000000000000000005FF808F1A3
:10010C0010B5054C237833B9044B13B10448AFF345
:10011C0000800123237010BD24000020000000008B
:10012C00FC2F000808B5034B1BB103490348AFF380
:10013C00008008BD0000000028000020FC2F0008F3
:10014C0080B500AF564B1B680E2B00F29A8001A2B3
:10015C0052F823F09D0100088F0200088F0200085E
:10016C008F0200088F0200088F0200088F0200081F
:10017C008F020008C3010008F10100081F020008EB
:10018C008F0200084D020008630200087902000883
:10019C0001F038F8434B1B68434A1360404B08226C
:1001AC001A60404B1B68184600F086FB0346184645
:1001BC0001F034FA72E001F03BF83C4B1B68012B68
:1001CC0061D1374B09221A60394B1B68364A1360D0
:1001DC00374B1B68184600F06FFB0346184601F0BE
:1001EC001DFA50E001F03AF8304B1B68012B4CD152
:1001FC002B4B0A221A602F4B1B682B4A13602D4B7A
:10020C001B68184600F058FB0346184601F006FA26
:10021C003BE001F039F8254B1B68012B37D1204B03
:10022C0008221A601F4B1B681F4A13601D4B1B686A
:10023C00184600F041FB0346184601F0EFF926E0A2
:10024C001A4B1B68012B24D100F0DCFE4FF4FA7022
:10025C0001F0E4F91DE0154B1B68012B1BD100F0DC
:10026C00E5FE4FF4FA7001F0D9F914E00F4B1B685E
:10027C00012B12D100F0EEFE4FF4FA7001F0CEF922
:10028C000BE000BF0AE000BF08E000BF06E000BFC3
:10029C0004E000BF02E000BF00E000BF00BF80BD73
:1002AC0044000020000000200C00002098000020DA
:1002BC00040000200800002080B500AF564B1B68DE
:1002CC000E2B00F29A8001A252F823F015030008BD
:1002DC0007040008070400080704000807040008C6
:1002EC000704000807040008070400083B03000883
:1002FC00690300089703000807040008C5030008F9
:10030C00DB030008F103000800F0D4FF434B1B682B
:10031C00434A1360404B09221A60404B1B68184635
:10032C0000F0CAFA0346184601F092F972E000F0A8
:10033C00D7FF3C4B1B68012B61D1374B09221A604C
:10034C00364B1B68364A1360344B1B68184600F05A
:10035C00B3FA0346184601F07BF950E000F0D6FFE3
:10036C00304B1B68012B4CD12B4B0A221A602E4BA5
:10037C001B682B4A13602C4B1B68184600F09CFA28
:10038C000346184601F064F93BE000F0D5FF254B1D
:10039C001B68012B37D1204B08221A60234B1B689A
:1003AC001F4A1360214B1B68184600F085FA034660
:1003BC00184601F04DF926E01A4B1B68012B24D18D
:1003CC0000F05CFE4FF4FA7001F042F91DE0154BA1
:1003DC001B68012B1BD100F065FE4FF4FA7001F085
:1003EC0037F914E00F4B1B68012B12D100F06EFE95
:1003FC004FF4FA7001F02CF90BE000BF0AE000BFDB
:10040C0008E000BF06E000BF04E000BF02E000BF50
:10041C0000E000BF00BF80BD4800002004000020A9
:10042C00100000209C00002008000020000000208C
:10043C0080B500AF514B1B68042B00F2948001A2D5
:10044C0052F823F0650400087F040008C704000874
:10045C000B0500084F050008484B01221A60484B59
:10046C0000221A60474B00221A60474B00221A6088
:10047C0082E0464B1B68184600F02CFA0346012B11
:10048C0073D101F09BF801F0A9F801F0B7F83B4BE0
:10049C0002221A6000F0A6FE394B0C221A60394B6E
:1004AC000C221A603A4B02221A603A4B1B683A4AE9
:1004BC001360354B1E221A6057E0344B1B681846EC
:1004CC0000F008FA0346012B51D101F077F801F046
:1004DC0085F801F093F8294B03221A60284B0D2262
:1004EC001A60284B0D221A60294B03221A602B4BE1
:1004FC001B68294A1360244B1E221A6037E0234BD9
:10050C001B68184600F0E6F90346012B31D101F0C7
:10051C0055F801F063F801F071F8184B04221A60D9
:10052C00174B0E221A60174B0E221A60184B04221E
:10053C001A601B4B1B68184A1360134B1E221A605F
:10054C0017E0124B1B68184600F0C4F90346012B48
:10055C0011D101F033F801F041F801F04FF8074BDD
:10056C0000221A6007E000BF06E000BF04E000BFF5
:10057C0002E000BF00E000BF00BF80BD40000020D3
:10058C0044000020480000204C00002054000020B3
:10059C000C000020000000201000002004000020AF
:1005AC000800002080B500AFB44B1B68212B00F273
:1005BC006F8101A252F823F04D0600089D08000837
:1005CC009D0800089D0800089D0800089D0800086B
:1005DC009D0800089D0800089D0800089D0800085B
:1005EC009D0800089D0800089D0800089D0800084B
:1005FC009D0800089D0800089D0800089D0800083B
:10060C009D0800089D08000883060008C306000822
:10061C0003070008530700089D0800089D08000800
:10062C009D0800089D0800089D0800089D0800080A
:10063C0093070008D3070008110800084B080008AE
:10064C008E4B14221A608E4B1B688E4A1268114610
:10065C00184600F09BFC00F04DFD8B4B1B681846B8
:10066C0000F05AFC884B1B680133874A1360FA2050
:10067C0001F008F81DE1854B1B68012B40F00A8145
:10068C007F4B1B687F4A12681146184600F07EFCAF
:10069C007A4B15221A6000F04BFD7B4B1B681846F9
:1006AC0000F03AFC784B1B680133774A1360FA2050
:1006BC0000F0E8FFEEE0754B1B68012B40F0EC807E
:1006CC006F4B1B686F4A12681146184600F05EFCAF
:1006DC006A4B16221A6000F049FD6B4B1B681846DA
:1006EC0000F01AFC684B1B680133674A1360FA2050
:1006FC0000F0C8FFD0E0654B1B68012B40F0CE80AA
:10070C005F4B1B685F4A12681146184600F03EFCAE
:10071C005A4B17221A6000F047FD5B4B1B681846BA
:10072C0000F0FAFB584B00221A60554B1B68013B3A
:10073C00534A1360534B1B68013B524A1360FA2017
:10074C0000F0A0FFAAE0514B1B68012B40F0A880E1
:10075C004B4B1B684B4A12681146184600F016FCAE
:10076C00464B14221A6000F0C5FC474B1B68184618
:10077C0000F0D2FB444B1B680133434A1360FA2050
:10078C0000F080FF8CE0414B1B68012B40F08A800D
:10079C003B4B1B683B4A12681146184600F0F6FBAF
:1007AC00364B1F221A6000F0C3FC374B1B681846EF
:1007BC0000F0B2FB344B1B680133334A1360FA2050
:1007CC0000F060FF6EE0314B1B68012B6CD12C4BA1
:1007DC001B682C4A12681146184600F0D7FB274BB1
:1007EC0020221A6000F0C2FC274B1B68184600F050
:1007FC0093FB254B1B680133234A1360FA2000F04E
:10080C0041FF51E0214B1B68012B4FD11C4B1B6846
:10081C001C4A12681146184600F0B8FB174B2122EF
:10082C001A6000F0C1FC184B1B68184600F074FBF2
:10083C00154B00221A60FA2000F024FF36E0134B0F
:10084C001B68012B34D10E4B1B680E4A12681146E3
:10085C00184600F09BFB094B1E221A6000F04AFC64
:10086C00094B1B68184600F057FB074B1B680133FC
:10087C00054A1360FA2000F005FF19E04C00002037
:10088C000C0000201000002050000020A0000020D0
:10089C0000BF0EE000BF0CE000BF0AE000BF08E0A4
:1008AC0000BF06E000BF04E000BF02E000BF00E0B4
:1008BC0000BF00BF80BD00BF80B483B000AF7860C4
:1008CC007B684FF47A7202FB03F318460C37BD4673
:1008DC0080BC704780B483B000AF7860094A7B68F5
:1008EC0013441B78012B06D1064A7B681344002263
:1008FC001A70012300E0002318460C37BD4680BC5B
:10090C00704700BF6C00002080B483B000AF03467A
:10091C00FB71FB79022B01D9002307E0FB79064A16
:10092C00D35C002B0CBF01230023DBB218460C3721
:10093C00BD4680BC704700BF5800002080B483B017
:10094C0000AF0346FB71FB79022B01D9FF2307E0B3
:10095C00FB79064AD35C012B0CBF01230023DBB2CD
:10096C0018460C37BD4680BC704700BF680000209D
:10097C0080B582B000AF0346FB71FB79514AD35C62
:10098C00022B69D0022B00F39980002B02D0012B93
:10099C001AD093E0FB791846FFF7B6FF0346002BFD
:1009AC0000F08980FB79474A0121D154FB79464AF2
:1009BC00002122F81310FB79444A0021D154FB7911
:1009CC00434A0121D15476E0FB791846FFF79CFF8E
:1009DC000346002B0DD1FB793A4A0021D154FB7907
:1009EC003B4A0021D154FB79374A002122F81310DD
:1009FC0063E0FB79344A32F81330B3F5967F09D2B1
:100A0C00FB79314A32F81320013291B22E4A22F886
:100A1C00131011E0FB792D4A0121D154FB792C4A9A
:100A2C000121D154FB792B4A002122F81310FB79B8
:100A3C00254A002122F81310FB791846FFF77EFF98
:100A4C000346002B39D0FB791E4A0221D154FB7985
:100A5C001E4A0021D15430E0FB791846FFF754FFB1
:100A6C000346002B0DD1FB79164A0021D154FB799A
:100A7C00174A0021D154FB79164A002122F8131091
:100A8C001CE0FB79134A32F81330632B09D8FB793D
:100A9C00104A32F81320013291B20E4A22F8131088
:100AAC000CE0FB790A4A0121D154FB79094A002157
:100ABC0022F8131002E000BF00E000BF00BF0837AF
:100ACC00BD4680BD80000020700000206800002022
:100ADC006C0000207800002090B583B000AF00239C
:100AEC00FB7154E0FA79FB792D49895C2D4AD1547C
:100AFC00FA79FB792C49895C294AD154FB79022B70
:100B0C001CD0022B25DC002B02D0012B0BD020E0BB
:100B1C00FC794FF40051254801F02AFA03461A4695
:100B2C00214B1A5516E0FC794FF480411F4801F017
:100B3C001FFA03461A461C4B1A550BE0FC794FF46E
:100B4C0000411A4801F014FA03461A46164B1A557E
:100B5C0000E000BFFB79144AD25CFB791049CB5CF6
:100B6C009A4211D1FB790E4AD25CFB790D49CB5CD0
:100B7C009A4209D1FA79FB790A49895C0C4AD15419
:100B8C00FB791846FFF7F4FEFB790133FB71FB7917
:100B9C00022BA7D900BF00BF0C37BD4690BD00BFCC
:100BAC0060000020640000205C0000200010014068
:100BBC005800002080B582B000AF78607B68092BAC
:100BCC0000F2808101A252F823F000BF010C000852
:100BDC00490C0008910C0008D90C0008210D0008E4
:100BEC00690D0008B10D0008F90D0008410E000850
:100BFC00890E000800220121C64801F0D0F900221C
:100C0C000221C44801F0CBF900220421C14801F0B3
:100C1C00C6F900220821BF4801F0C1F900221021B9
:100C2C00BC4801F0BCF900222021BA4801F0B7F908
:100C3C0001224021B74801F0B2F967E101220121FC
:100C4C00B44801F0ACF900220221B24801F0A7F936
:100C5C0000220421AF4801F0A2F901220821AD487D
:100C6C0001F09DF901221021AA4801F098F9012206
:100C7C002021A84801F093F901224021A54801F058
:100C8C008EF943E100220121A24801F088F90022EB
:100C9C000221A04801F083F9012204219D4801F0B2
:100CAC007EF9002208219B4801F079F900221021DD
:100CBC00984801F074F901222021964801F06FF94F
:100CCC0000224021934801F06AF91FE10022012122
:100CDC00904801F064F9002202218E4801F05FF97E
:100CEC00002204218B4801F05AF90022082189487E
:100CFC0001F055F901221021864801F050F901222A
:100D0C002021844801F04BF900224021814801F058
:100D1C0046F9FBE0012201217E4801F040F9002256
:100D2C0002217C4801F03BF900220421794801F0B2
:100D3C0036F901220821774801F031F901221021FE
:100D4C00744801F02CF900222021724801F027F997
:100D5C00002240216F4801F022F9D7E00022012146
:100D6C006C4801F01CF9012202216A4801F017F9C4
:100D7C0000220421674801F012F90022082165487D
:100D8C0001F00DF901221021624801F008F900224E
:100D9C002021604801F003F9002240215D4801F058
:100DAC00FEF8B3E0002201215A4801F0F8F80122C4
:100DBC000221584801F0F3F800220421554801F0B3
:100DCC00EEF800220821534801F0E9F80022102126
:100DDC00504801F0E4F8002220214E4801F0DFF8E1
:100DEC00002240214B4801F0DAF88FE0002201216B
:100DFC00484801F0D4F800220221464801F0CFF80F
:100E0C0000220421434801F0CAF80122082141487C
:100E1C0001F0C5F8012210213E4801F0C0F8012272
:100E2C0020213C4801F0BBF801224021394801F057
:100E3C00B6F86BE000220121364801F0B0F8002230
:100E4C000221344801F0ABF800220421314801F0B2
:100E5C00A6F8002208212F4801F0A1F80022102149
:100E6C002C4801F09CF8002220212A4801F097F828
:100E7C0000224021274801F092F847E0002201218E
:100E8C00244801F08CF800220221224801F087F856
:100E9C00002204211F4801F082F8002208211D487D
:100EAC0001F07DF8012210211A4801F078F8002297
:100EBC002021184801F073F800224021154801F058
:100ECC006EF823E001220121124801F068F801229A
:100EDC000221104801F063F8012204210D4801F0B1
:100EEC005EF8012208210B4801F059F8012210216B
:100EFC00084801F054F801222021064801F04FF86F
:100F0C0001224021034801F04AF800BF00BF083716
:100F1C00BD4680BD000C014080B582B000AF78604A
:100F2C007B68032B2AD801A252F823F0490F000842
:100F3C00590F0008690F0008790F0008124A7B68E6
:100F4C0052F823301846FFF735FE18E00E4A7B683E
:100F5C0052F823301846FFF72DFE10E00A4A7B6842
:100F6C0052F823301846FFF725FE08E0064A7B6846
:100F7C0052F823301846FFF71DFE00E000BF00BFFB
:100F8C000837BD4680BD00BF8400002080B483B00C
:100F9C0000AF786039607B68184A82FB03129210AC
:100FAC00DB17D31A164A13607968144B83FB0123A1
:100FBC009A10CB17D21A13469B0013445B00CA1A23
:100FCC000F4B5A603B680D4A82FB03129210DB17E1
:100FDC00D31A0B4A93603968084B83FB01239A1090
:100FEC00CB17D21A13469B0013445B00CA1A044B4E
:100FFC00DA6000BF0C37BD4680BC7047676666661A
:10100C008400002080B500AF0421074800F0DFFF0A
:10101C0001221021044800F0C2FF012208210248DD
:10102C0000F0BDFF00BF80BD0008014080B500AFDF
:10103C001021074800F0CBFF01220421044800F0E6
:10104C00AEFF01220821024800F0A9FF00BF80BDBD
:10105C000008014080B500AF0821074800F0B7FF39
:10106C0001220421044800F09AFF012210210248B9
:10107C0000F095FF00BF80BD0008014080B500AFB7
:10108C002021074800F0A3FF01228021044800F032
:10109C0086FF01224021024800F081FF00BF80BD85
:1010AC000008014080B500AF8021074800F08FFF99
:1010BC0001222021044800F072FF01224021024845
:1010CC0000F06DFF00BF80BD0008014080B500AF8F
:1010DC004021074800F07BFF01222021044800F04A
:1010EC005EFF01228021024800F059FF00BF80BD45
:1010FC000008014080B500AF00224FF480710B480E
:10110C0000F04DFF01224FF40071084800F047FF3A
:10111C0001224FF48061054800F041FF01224FF499
:10112C000061024800F03BFF00BF80BD0008014099
:10113C0080B500AF01224FF480710B4800F02FFFF7
:10114C0000224FF40071084800F029FF01224FF4EF
:10115C008061054800F023FF01224FF40061024832
:10116C0000F01DFF00BF80BD0008014080B500AF3E
:10117C0001224FF480710B4800F011FF01224FF453
:10118C000071084800F00BFF00224FF48061054805
:10119C0000F005FF01224FF40061024800F0FFFE51
:1011AC0000BF80BD0008014080B500AF01224FF4A4
:1011BC0080710B4800F0F3FE01224FF400710848D7
:1011CC0000F0EDFE01224FF48061054800F0E7FECF
:1011DC0000224FF40061024800F0E1FE00BF80BD28
:1011EC000008014080B500AF00220421044800F043
:1011FC00D6FE00222021024800F0D1FE00BF80BDA7
:10120C000008014080B500AF01220421074800F01E
:10121C00C6FE01221021054800F0C1FE0122082162
:10122C00024800F0BCFE00BF80BD00BF00080140BA
:10123C0080B500AF00220421074800F0B0FE012267
:10124C001021054800F0ABFE01220821024800F0F5
:10125C00A6FE00BF80BD00BF0008014080B500AFF6
:10126C0001220421074800F09AFE002210210548B3
:10127C0000F095FE01220821024800F090FE00BF0C
:10128C0080BD00BF0008014080B500AF01220421E1
:10129C00074800F084FE01221021054800F07FFE73
:1012AC0000220821024800F07AFE00BF80BD00BF7A
:1012BC000008014080B500AF01222021074800F052
:1012CC006EFE01228021054800F069FE01224021BA
:1012DC00024800F064FE00BF80BD00BF0008014062
:1012EC0080B500AF00222021074800F058FE0122F3
:1012FC008021054800F053FE01224021024800F0F5
:10130C004EFE00BF80BD00BF0008014080B500AF9D
:10131C0001222021074800F042FE002280210548CE
:10132C0000F03DFE01224021024800F038FE00BFD3
:10133C0080BD00BF0008014080B500AF0122202114
:10134C00074800F02CFE01228021054800F027FE02
:10135C0000224021024800F022FE00BF80BD00BFE9
:10136C000008014080B500AF00F018FB00F028F831
:10137C0000F0AEF800F060F80F4801F079FA0F4B6E
:10138C0000221A604FF47A7000F048F94FF47A702A
:10139C0000F05EF94FF47A7000F074F94FF47A7043
:1013AC0000F08AF9FFF744F8FEF7CAFEFEF784FF57
:1013BC00FFF7F8F8F6E700BFCC0000204000002053
:1013CC0080B590B000AF07F1180328220021184611
:1013DC0001F006FE3B1D00221A605A609A60DA602A
:1013EC001A610223BB610123BB621023FB62002341
:1013FC007B6307F11803184600F002FE0346002B2E
:10140C0001D000F0D5F80F237B600023BB600023D4
:10141C00FB6000233B6100237B613B1D00211846D0
:10142C0001F06EF80346002B01D000F0C1F800BFAC
:10143C004037BD4680BD000080B586B000AF07F1D7
:10144C00080300221A605A609A60DA603B46002258
:10145C001A605A601D4B4FF080421A601B4B41F6CC
:10146C003F725A60194B00229A60184B0922DA60BD
:10147C00164B00221A61154B00229A61134801F099
:10148C00A7F90346002B01D000F092F84FF48053DB
:10149C00BB6007F1080319460C4801F03DFB0346FD
:1014AC00002B01D000F084F800233B6000237B600C
:1014BC003B461946054801F005FD0346002B01D0BB
:1014CC0000F076F800BF1837BD4680BDCC00002078
:1014DC0080B588B000AF07F1100300221A605A6083
:1014EC009A60DA602E4B9B692D4A43F0100393618E
:1014FC002B4B9B6903F01003FB60FB68284B9B692B
:10150C00274A43F004039361254B9B6903F00403C2
:10151C00BB60BB68224B9B69214A43F00803936173
:10152C001F4B9B6903F008037B607B68002240F62D
:10153C00FE711C4800F033FD00227F211A4800F098
:10154C002EFD4FF460433B6100237B610123BB61A3
:10155C0007F110031946154800F090FB40F6FE7396
:10156C003B6101237B610023BB610223FB6107F11B
:10157C00100319460B4800F081FB7F233B610123CC
:10158C007B610023BB610223FB6107F11003194649
:10159C00054800F073FB00BF2037BD4680BD00BF7F
:1015AC000010024000080140000C014000100140F6
:1015BC0080B400AF72B600BFFEE7000080B400AF8D
:1015CC00044B00221A60044B01221A6000BFBD4676
:1015DC0080BC7047B40000209800002080B400AF9D
:1015EC00044B00221A60044B01221A6000BFBD4656
:1015FC0080BC7047B80000209C00002080B400AF75
:10160C00044B00221A60044B01221A6000BFBD4635
:10161C0080BC7047BC000020A000002080B483B0C8
:10162C0000AF7860074B1B687A6892FBF3F3064AAD
:10163C001360064B00221A6000BF0C37BD4680BCFD
:10164C00704700BF14000020B40000209800002058
:10165C0080B483B000AF7860074B1B687A6892FB4C
:10166C00F3F3064A1360064B00221A6000BF0C37D6
:10167C00BD4680BC704700BF14000020B80000209D
:10168C009C00002080B483B000AF7860074B1B68CF
:10169C007A6892FBF3F3064A1360064B00221A6039
:1016AC0000BF0C37BD4680BC704700BF1400002043
:1016BC00BC000020A000002080B483B000AF786094
:1016CC00074B1B687A6892FBF3F3064A1360064BD0
:1016DC0000221A6000BF0C37BD4680BC704700BFAB
:1016EC0014000020C0000020A400002080B400AF33
:1016FC00394B1B68002B0BDD374B1B68013B364A03
:10170C001360354B1B68002B02DC344B01221A6032
:10171C00334B1B68002B0BDD314B1B68013B304AF4
:10172C0013602F4B1B68002B02DC2E4B01221A601E
:10173C002D4B1B68002B0BDD2B4B1B68013B2A4AE6
:10174C001360294B1B68002B02DC284B01221A600A
:10175C00274B1B68002B0BDD254B1B68013B244AD8
:10176C001360234B1B68002B02DC224B01221A60F6
:10177C00214B1B68002B0BDD1F4B1B68013B1E4ACA
:10178C0013601D4B1B68002B02DC1C4B01221A60E2
:10179C001B4B1B68002B0BDD194B1B68013B184ABC
:1017AC001360174B1B68002B02DC164B01221A60CE
:1017BC00154B1B68002B0BDD134B1B68013B124AAE
:1017CC001360114B1B68002B02DC104B01221A60BA
:1017DC0000BFBD4680BC7047B000002094000020C4
:1017EC00B400002098000020B80000209C000020CD
:1017FC00BC000020A0000020C0000020A40000209D
:10180C00C4000020A8000020C8000020AC0000206C
:10181C0080B485B000AF154B9B69144A43F00103AB
:10182C009361124B9B6903F00103BB60BB680F4BC8
:10183C00DB690E4A43F08053D3610C4BDB6903F038
:10184C0080537B607B680A4B5B68FB60FB6823F012
:10185C00E063FB60FB6843F08063FB60044AFB6859
:10186C00536000BF1437BD4680BC70470010024067
:10187C000000014080B584B000AF78607B681B68C5
:10188C00B3F1804F13D10C4BDB690B4A43F00103CE
:10189C00D361094BDB6903F00103FB60FB68002299
:1018AC0000211C2000F0B3F91C2000F0CCF900BF83
:1018BC001037BD4680BD00BF0010024080B400AFA1
:1018CC00FEE780B400AFFEE780B400AFFEE780B463
:1018DC0000AFFEE780B400AFFEE780B400AF00BFFE
:1018EC00BD4680BC704780B400AF00BFBD4680BC15
:1018FC00704780B400AF00BFBD4680BC704780B558
:10190C0000AF00F091F800BF80BD000080B500AFC3
:10191C00024800F0F9FF00BF80BD00BFCC000020E2
:10192C0080B400AF00BFBD4680BC704780B582B0AC
:10193C0000AF78607B681B68B3F1804F03D1FFF771
:10194C00CBF8FFF7D3FE00BF0837BD4680BD0000C3
:10195C000C480D490D4A002302E0D458C4500433FE
:10196C00C4188C42F9D30A4A0A4C002301E01360D4
:10197C000432A242FBD3FFF7D3FF01F00DFBFFF7BC
:10198C00F1FC704700000020240000203C300008CF
:10199C002400002018010020FEE7000080B500AFF5
:1019AC00084B1B68074A43F010031360032000F038
:1019BC0023F90F2000F008F8FFF72AFF0023184640
:1019CC0080BD00BF0020024080B582B000AF7860BF
:1019DC00124B1A68124B1B7819464FF47A73B3FBEF
:1019EC00F1F3B2FBF3F3184600F03BF90346002B7E
:1019FC0001D001230EE07B680F2B0AD800227968F6
:101A0C004FF0FF3000F003F9064A7B6813600023A7
:101A1C0000E0012318460837BD4680BD18000020A1
:101A2C00200000201C00002080B400AF054B1B7868
:101A3C001A46054B1B681344034A136000BFBD468E
:101A4C0080BC7047200000201401002080B400AF3F
:101A5C00024B1B681846BD4680BC70471401002021
:101A6C0080B485B000AF78607B6803F00703FB603F
:101A7C000C4BDB68BB60BA684FF6FF031340BB60CE
:101A8C00FB681A02BB68134343F0BF6343F4003393
:101A9C00BB60044ABB68D36000BF1437BD4680BC32
:101AAC00704700BF00ED00E080B400AF044BDB6872
:101ABC001B0A03F007031846BD4680BC704700BFE5
:101ACC0000ED00E080B483B000AF0346FB7197F9E2
:101ADC000730002B0BDBFB7903F01F02064997F94B
:101AEC0007305B09012000FA02F241F8232000BF05
:101AFC000C37BD4680BC704700E100E080B483B079
:101B0C0000AF03463960FB7197F90730002B0ADBF5
:101B1C003B68DAB20C4997F907301201D2B20B4488
:101B2C0083F800230AE03B68DAB20849FB7903F03A
:101B3C000F03043B1201D2B20B441A7600BF0C37D0
:101B4C00BD4680BC704700BF00E100E000ED00E046
:101B5C0080B489B000AFF860B9607A60FB6803F0BC
:101B6C000703FB61FB69C3F10703042B28BF0423A4
:101B7C00BB61FB690433062B02D9FB69033B00E014
:101B8C0000237B614FF0FF32BB6902FA03F3DA43A7
:101B9C00BB681A407B699A404FF0FF317B6901FAB0
:101BAC0003F3D9437B680B40134318462437BD46D7
:101BBC0080BC704780B582B000AF78607B68013B19
:101BCC00B3F1807F01D301230FE00A4A7B68013B0C
:101BDC0053600F214FF0FF30FFF790FF054B0022B1
:101BEC009A60044B07221A60002318460837BD463A
:101BFC0080BD00BF10E000E080B582B000AF78601F
:101C0C007868FFF72DFF00BF0837BD4680BD80B553
:101C1C0086B000AF0346B9607A60FB7300237B612A
:101C2C00FFF742FF78617A68B9687869FFF790FF2F
:101C3C00024697F90F3011461846FFF75FFF00BFB9
:101C4C001837BD4680BD80B582B000AF0346FB712E
:101C5C0097F907301846FFF735FF00BF0837BD4628
:101C6C0080BD80B582B000AF78607868FFF7A2FFC6
:101C7C00034618460837BD4680BD000080B48BB0C3
:101C8C0000AF7860396000237B6200233B6248E13F
:101C9C0001227B6A02FA03F3FB613B681B68FA6959
:101CAC001340BB61BA69FB699A4240F037813B68CB
:101CBC005B68A34A93425ED0A14A934275D8A14A6D
:101CCC00934258D09F4A93426FD89F4A934252D026
:101CDC009D4A934269D89D4A93424CD09B4A934269
:101CEC0063D89B4A934246D0994A93425DD8122BB3
:101CFC002AD8122B59D801A252F823F0831D0008C0
:101D0C005D1D00086F1D0008B11D0008B71D0008FF
:101D1C00B71D0008B71D0008B71D0008B71D000847
:101D2C00B71D0008B71D0008B71D0008B71D000837
:101D3C00B71D0008B71D0008B71D0008B71D000827
:101D4C00651D0008791D0008824A934213D02CE0CF
:101D5C003B68DB683B6229E03B68DB6804333B6231
:101D6C0024E03B68DB6808333B621FE03B68DB68C0
:101D7C000C333B621AE03B689B68002B02D10423B6
:101D8C003B6213E03B689B68012B05D108233B6247
:101D9C007B68FA691A6109E008233B627B68FA697F
:101DAC005A6103E000233B6200E000BFBB69FF2BDC
:101DBC0001D87B6801E07B6804337B61BB69FF2B36
:101DCC0002D87B6A9B0002E07B6A083B9B003B616C
:101DDC007B691A680F213B6901FA03F3DB431A4054
:101DEC00396A3B6901FA03F31A437B691A603B6851
:101DFC005B6803F08053002B00F09080564B9B697E
:101E0C00554A43F001039361534B9B6903F0010363
:101E1C00BB60BB68514A7B6A9B08023352F8233083
:101E2C00FB607B6A03F003039B000F2202FA03F3AF
:101E3C00DB43FA681340FB607B68494A93420DD040
:101E4C007B68484A934207D07B68474A934201D14A
:101E5C00022304E0032302E0012300E000237A6A5A
:101E6C0002F0030292009340FA681343FB603B4973
:101E7C007B6A9B080233FA6841F823203B685B6855
:101E8C0003F48033002B06D0384B1A683749BB69F2
:101E9C0013430B6006E0354B1A68BB69DB433349CF
:101EAC0013400B603B685B6803F40033002B06D0D7
:101EBC002E4B5A682D49BB6913434B6006E02B4BE4
:101ECC005A68BB69DB43294913404B603B685B682C
:101EDC0003F48013002B06D0244B9A682349BB696A
:101EEC0013438B6006E0214B9A68BB69DB431F49A7
:101EFC0013408B603B685B6803F40013002B06D027
:101F0C001A4BDA681949BB691343CB6006E0174BCF
:101F1C00DA68BB69DB4315491340CB607B6A01333C
:101F2C007B623B681A687B6A22FA03F3002B7FF40E
:101F3C00AFAE00BF00BF2C37BD4680BC704700BFA2
:101F4C00000032100000311000002210000021109F
:101F5C00000012100000111000100240000001409F
:101F6C0000080140000C0140001001400004014039
:101F7C0080B485B000AF78600B467B807B689A6834
:101F8C007B881340002B02D00123FB7301E000235C
:101F9C00FB73FB7B18461437BD4680BC704780B47E
:101FAC0083B000AF78600B467B8013467B707B78E8
:101FBC00002B03D07A887B681A6103E07B881A04B3
:101FCC007B681A6100BF0C37BD4680BC704780B47B
:101FDC0085B000AF78600B467B807B68DB68FB606C
:101FEC007A88FB6813401A04FB68D9437B880B4042
:101FFC001A437B681A6100BF1437BD4680BC70471A
:10200C0080B586B000AF78607B68002B01D10123CE
:10201C006CE27B681B6803F00103002B00F08780E7
:10202C00924B5B6803F00C03042B0CD08F4B5B685A
:10203C0003F00C03082B12D18C4B5B6803F4803338
:10204C00B3F5803F0BD1894B1B6803F40033002B95
:10205C006CD07B685B68002B68D1012346E27B68FF
:10206C005B68B3F5803F06D1804B1B687F4A43F415
:10207C00803313602EE07B685B68002B0CD17B4BAC
:10208C001B687A4A23F480331360784B1B68774AB9
:10209C0023F4802313601DE07B685B68B3F5A02FED
:1020AC000CD1724B1B68714A43F4802313606F4B45
:1020BC001B686E4A43F4803313600BE06B4B1B6858
:1020CC006A4A23F480331360684B1B68674A23F415
:1020DC00802313607B685B68002B13D0FFF7B6FC82
:1020EC00386108E0FFF7B2FC02463B69D31A642B57
:1020FC0001D90323FAE15D4B1B6803F40033002B79
:10210C00F0D014E0FFF7A2FC386108E0FFF79EFC6A
:10211C0002463B69D31A642B01D90323E6E1534BE6
:10212C001B6803F40033002BF0D100E000BF7B6888
:10213C001B6803F00203002B63D04C4B5B6803F06D
:10214C000C03002B0BD0494B5B6803F00C03082BE2
:10215C001CD1464B5B6803F48033002B16D1434BE8
:10216C001B6803F00203002B05D07B681B69012B55
:10217C0001D00123BAE13D4B1B6823F0F8027B68C8
:10218C005B69DB00394913430B603AE07B681B69E0
:10219C00002B20D0364B01221A60FFF757FC386118
:1021AC0008E0FFF753FC02463B69D31A022B01D916
:1021BC0003239BE12D4B1B6803F00203002BF0D093
:1021CC002A4B1B6823F0F8027B685B69DB0027490C
:1021DC0013430B6015E0264B00221A60FFF736FC08
:1021EC00386108E0FFF732FC02463B69D31A022B38
:1021FC0001D903237AE11D4B1B6803F00203002B6A
:10220C00F0D17B681B6803F00803002B3AD07B6885
:10221C009B69002B19D0174B01221A60FFF716FC93
:10222C00386108E0FFF712FC02463B69D31A022B17
:10223C0001D903235AE10D4B5B6A03F00203002B17
:10224C00F0D0012000F0A6FA1CE00A4B00221A6024
:10225C00FFF7FCFB38610FE0FFF7F8FB02463B6928
:10226C00D31A022B08D9032340E100BF001002400F
:10227C0000004242800442429E4B5B6A03F0020320
:10228C00002BE9D17B681B6803F00403002B00F0E2
:10229C00A6800023FB75974BDB6903F08053002B62
:1022AC000DD1944BDB69934A43F08053D361914B2E
:1022BC00DB6903F08053BB60BB680123FB758E4B5D
:1022CC001B6803F48073002B18D18B4B1B688A4A54
:1022DC0043F480731360FFF7B9FB386108E0FFF734
:1022EC00B5FB02463B69D31A642B01D90323FDE0ED
:1022FC00814B1B6803F48073002BF0D07B68DB6888
:10230C00012B06D17B4B1B6A7A4A43F00103136203
:10231C002DE07B68DB68002B0CD1764B1B6A754A71
:10232C0023F001031362734B1B6A724A23F00403FC
:10233C0013621CE07B68DB68052B0CD16D4B1B6AB0
:10234C006C4A43F0040313626A4B1B6A694A43F0FC
:10235C00010313620BE0674B1B6A664A23F001030F
:10236C001362644B1B6A634A23F0040313627B6899
:10237C00DB68002B15D0FFF769FB38610AE0FFF72B
:10238C0065FB02463B69D31A41F28832934201D96C
:10239C000323ABE0574B1B6A03F00203002BEED078
:1023AC0014E0FFF753FB38610AE0FFF74FFB0246DE
:1023BC003B69D31A41F28832934201D9032395E049
:1023CC004C4B1B6A03F00203002BEED1FB7D012B5F
:1023DC0005D1484BDB69474A23F08053D3617B68B6
:1023EC00DB69002B00F08180424B5B6803F00C032F
:1023FC00082B61D07B68DB69022B46D13F4B002256
:10240C001A60FFF723FB386108E0FFF71FFB024659
:10241C003B69D31A022B01D9032367E0354B1B68A8
:10242C0003F00073002BF0D17B681B6AB3F5803F7F
:10243C0008D1304B5B6823F400327B689B682D49D4
:10244C0013434B602B4B5B6823F474127B68196A43
:10245C007B685B6A0B43274913434B60274B012274
:10246C001A60FFF7F3FA386108E0FFF7EFFA02465B
:10247C003B69D31A022B01D9032337E01D4B1B6890
:10248C0003F00073002BF0D02FE01C4B00221A60DD
:10249C00FFF7DCFA386108E0FFF7D8FA02463B692F
:1024AC00D31A022B01D9032320E0124B1B6803F033
:1024BC000073002BF0D118E07B68DB69012B01D194
:1024CC00012313E00B4B5B68FB60FB6803F4803269
:1024DC007B681B6A9A4206D1FB6803F470127B6816
:1024EC005B6A9A4201D0012300E00023184618379A
:1024FC00BD4680BD001002400070004060004242AA
:10250C0080B584B000AF786039607B68002B01D156
:10251C000123D0E06A4B1B6803F007033A689A4228
:10252C0010D9674B1B6823F0070265493B681343BE
:10253C000B60634B1B6803F007033A689A4201D0A7
:10254C000123B8E07B681B6803F00203002B20D04A
:10255C007B681B6803F00403002B05D0594B5B68A8
:10256C00584A43F4E06353607B681B6803F008032C
:10257C00002B05D0534B5B68524A43F460535360B5
:10258C00504B5B6823F0F0027B689B684D4913430A
:10259C004B607B681B6803F00103002B40D07B6809
:1025AC005B68012B07D1474B1B6803F40033002BEE
:1025BC0015D101237FE07B685B68022B07D1414B6F
:1025CC001B6803F00073002B09D1012373E03D4B12
:1025DC001B6803F00203002B01D101236BE0394B84
:1025EC005B6823F003027B685B68364913434B60DE
:1025FC00FFF72CFAF8600AE0FFF728FA0246FB68AE
:10260C00D31A41F28832934201D9032353E02D4B64
:10261C005B6803F00C027B685B689B009A42EBD111
:10262C00274B1B6803F007033A689A4210D2244BDD
:10263C001B6823F0070222493B6813430B60204BB5
:10264C001B6803F007033A689A4201D0012332E079
:10265C007B681B6803F00403002B08D0194B5B68E4
:10266C0023F4E0627B68DB68164913434B607B689C
:10267C001B6803F00803002B09D0124B5B6823F492
:10268C0060527B681B69DB000E4913434B6000F002
:10269C0021F802460B4B5B681B0903F00F030A4938
:1026AC00CB5C22FA03F3094A1360094B1B681846EA
:1026BC00FFF78AF9002318461037BD4680BD00BFCE
:1026CC0000200240001002402430000818000020B6
:1026DC001C00002090B48AB000AF2A4B3C1D0FCBDD
:1026EC0084E80F0040F201233B800023FB610023B0
:1026FC00BB6100237B6200237B6100233B62224B86
:10270C005B68FB61FB6903F00C03042B02D0082B04
:10271C0003D02DE01D4B3B622DE0FB699B0C03F0BD
:10272C000F0307F12802134413F8243C7B61FB6967
:10273C0003F48033002B13D0134B5B685B0C03F05A
:10274C00010307F12802134413F8283CBB617B6991
:10275C000E4A02FB03F2BB69B2FBF3F37B6204E0AB
:10276C007B690B4A02FB03F37B627B6A3B6202E0F0
:10277C00064B3B6200BF3B6A18462837BD4690BCEF
:10278C00704700BF143000080010024000127A009D
:10279C0000093D0080B485B000AF78600A4B1B681F
:1027AC000A4AA2FB03235B0A7A6802FB03F3FB6071
:1027BC0000BFFB685A1EFA60002BF9D100BF00BFA6
:1027CC001437BD4680BC704718000020D34D6210F2
:1027DC0080B582B000AF78607B68002B01D10123FB
:1027EC0041E07B6893F83D30DBB2002B06D17B686F
:1027FC00002283F83C207868FFF73CF87B680222C3
:10280C0083F83D207B681A687B68043319461046B0
:10281C0000F06AFA7B68012283F846207B6801226B
:10282C0083F83E207B68012283F83F207B680122DD
:10283C0083F840207B68012283F841207B680122C9
:10284C0083F842207B68012283F843207B680122B5
:10285C0083F844207B68012283F845207B680122A1
:10286C0083F83D20002318460837BD4680BD000084
:10287C0080B485B000AF78607B6893F83D30DBB2F4
:10288C00012B01D0012335E07B68022283F83D2027
:10289C007B681B68DA687B681B6842F00102DA60AF
:1028AC007B681B68164A934209D07B681B68B3F19E
:1028BC00804F04D07B681B68124A934211D17B680D
:1028CC001B689B6803F00703FB60FB68062B10D0AA
:1028DC007B681B681A687B681B6842F001021A60EF
:1028EC0007E07B681B681A687B681B6842F0010272
:1028FC001A60002318461437BD4680BC704700BFD1
:10290C00002C01400004004080B582B000AF78601C
:10291C007B681B681B6903F00203022B22D17B68C6
:10292C001B68DB6803F00203022B1BD17B681B685E
:10293C006FF002021A617B6801221A777B681B68B0
:10294C009B6903F00303002B03D0786800F0B1F906
:10295C0005E0786800F0A4F9786800F0B3F97B68BA
:10296C0000221A777B681B681B6903F00403042B95
:10297C0022D17B681B68DB6803F00403042B1BD19A
:10298C007B681B686FF004021A617B6802221A775D
:10299C007B681B689B6903F44073002B03D0786839
:1029AC0000F087F905E0786800F07AF9786800F0B3
:1029BC0089F97B6800221A777B681B681B6903F016
:1029CC000803082B22D17B681B68DB6803F0080323
:1029DC00082B1BD17B681B686FF008021A617B689F
:1029EC0004221A777B681B68DB6903F00303002B56
:1029FC0003D0786800F05DF905E0786800F050F9D4
:102A0C00786800F05FF97B6800221A777B681B6896
:102A1C001B6903F01003102B22D17B681B68DB6849
:102A2C0003F01003102B1BD17B681B686FF0100296
:102A3C001A617B6808221A777B681B68DB6903F4D0
:102A4C004073002B03D0786800F033F905E0786808
:102A5C0000F026F9786800F035F97B6800221A77C7
:102A6C007B681B681B6903F00103012B0ED17B688B
:102A7C001B68DB6803F00103012B07D17B681B6823
:102A8C006FF001021A617868FEF750FF7B681B68D3
:102A9C001B6903F08003802B0ED17B681B68DB68FD
:102AAC0003F08003802B07D17B681B686FF08002DA
:102ABC001A61786800F067FA7B681B681B6903F081
:102ACC004003402B0ED17B681B68DB6803F040038E
:102ADC00402B07D17B681B686FF040021A61786845
:102AEC0000F0F9F87B681B681B6903F02003202BAE
:102AFC000ED17B681B68DB6803F02003202B07D109
:102B0C007B681B686FF020021A61786800F032FA5B
:102B1C0000BF0837BD4680BD80B584B000AF78607B
:102B2C0039607B6893F83C30012B01D10223B3E070
:102B3C007B68012283F83C207B68022283F83D20CD
:102B4C007B681B689B68FB60FB6823F07703FB606A
:102B5C00FB6823F47F43FB607B681B68FA689A6010
:102B6C003B681B68B3F5005F3ED0B3F5005F00F225
:102B7C008780B3F5805F00F08580B3F5805F7FD8E8
:102B8C00702B1AD0702B7BD8602B50D0602B77D841
:102B9C00502B3CD0502B73D8402B58D0402B6FD897
:102BAC00302B64D0302B6BD8202B60D0202B67D8E7
:102BBC00002B5CD0102B5AD062E07B6818683B6805
:102BCC0099683B685A683B68DB6800F05CF97B6885
:102BDC001B689B68FB60FB6843F07703FB607B68BA
:102BEC001B68FA689A604EE07B6818683B689968C5
:102BFC003B685A683B68DB6800F045F97B681B68EA
:102C0C009A687B681B6842F480429A603BE07B6860
:102C1C0018683B6859683B68DB681A4600F0BCF8DA
:102C2C007B681B685021184600F013F92BE07B6879
:102C3C0018683B6859683B68DB681A4600F0DAF89C
:102C4C007B681B686021184600F003F91BE07B6869
:102C5C0018683B6859683B68DB681A4600F09CF8BA
:102C6C007B681B684021184600F0F3F80BE07B688A
:102C7C001A683B681B681946104600F0EAF802E037
:102C8C0000BF00E000BF7B68012283F83D207B6819
:102C9C00002283F83C20002318461037BD4680BD27
:102CAC0080B483B000AF786000BF0C37BD4680BCE9
:102CBC00704780B483B000AF786000BF0C37BD465E
:102CCC0080BC704780B483B000AF786000BF0C3715
:102CDC00BD4680BC704780B483B000AF786000BF45
:102CEC000C37BD4680BC704780B485B000AF7860AF
:102CFC0039607B681B68FB607B68254A934207D070
:102D0C007B68B3F1804F03D07B68224A934208D191
:102D1C00FB6823F07003FB603B685B68FA68134345
:102D2C00FB607B681A4A934207D07B68B3F1804FF3
:102D3C0003D07B68174A934208D1FB6823F4407395
:102D4C00FB603B68DB68FA681343FB60FB6823F0AD
:102D5C0080023B685B691343FB607B68FA681A600E
:102D6C003B689A687B68DA623B681A687B689A628F
:102D7C007B68074A934203D13B681A697B681A63E4
:102D8C007B6801225A6100BF1437BD4680BC704776
:102D9C00002C01400004004080B487B000AFF86004
:102DAC00B9607A60FB681B6A7B61FB681B6A23F065
:102DBC000102FB681A62FB689B693B613B6923F06B
:102DCC00F0033B617B681B013A6913433B617B69F0
:102DDC0023F00A037B617A69BB6813437B61FB6850
:102DEC003A699A61FB687A691A6200BF1C37BD4662
:102DFC0080BC704780B487B000AFF860B9607A606F
:102E0C00FB681B6A23F01002FB681A62FB689B6963
:102E1C007B61FB681B6A3B617B6923F470437B61BC
:102E2C007B681B037A6913437B613B6923F0A00326
:102E3C003B61BB681B013A6913433B61FB687A69D0
:102E4C009A61FB683A691A6200BF1C37BD4680BCA8
:102E5C00704780B485B000AF786039607B689B6840
:102E6C00FB60FB6823F07003FB603A68FB6813435C
:102E7C0043F00703FB607B68FA689A6000BF143765
:102E8C00BD4680BC704780B487B000AFF860B960B5
:102E9C007A603B60FB689B687B617B6923F47F43B2
:102EAC007B613B681A027B681A43BB6813437A69DF
:102EBC0013437B61FB687A699A6000BF1C37BD467F
:102ECC0080BC704780B485B000AF786039607B6897
:102EDC0093F83C30012B01D1022341E07B680122A5
:102EEC0083F83C207B68022283F83D207B681B68BA
:102EFC005B68FB607B681B689B68BB60FB6823F0AE
:102F0C007003FB603B681B68FA681343FB607B68CB
:102F1C001B68FA685A607B681B68144A934209D094
:102F2C007B681B68B3F1804F04D07B681B68104A28
:102F3C0093420CD1BB6823F08003BB603B685B6899
:102F4C00BA681343BB607B681B68BA689A607B687D
:102F5C00012283F83D207B68002283F83C2000236B
:102F6C0018461437BD4680BC704700BF002C01408A
:102F7C000004004080B483B000AF786000BF0C3711
:102F8C00BD4680BC704780B483B000AF786000BF92
:102F9C000C37BD4680BC704770B500260C4D0D4CEF
:102FAC00641BA410A64209D100F022F800260A4D99
:102FBC000A4C641BA410A64205D170BD55F8043B05
:102FCC0098470136EEE755F8043B98470136F2E78F
:102FDC003430000834300008343000083830000831
:102FEC0003460244934200D1704703F8011BF9E7F2
:102FFC00F8B500BFF8BC08BC9E467047F8B500BFDA
:08300C00F8BC08BC9E467047A9
:1030140002030405060708090A0B0C0D0E0F101015
:103024000000000000000000010203040607080974
:04303400310100085E
:043038000D0100087E
:10303C000500000003000000020000000500000075
:10304C00030000000A0000000024F400100000003F
:04305C00010000006F
:040000050800195D79
:00000001FF
